{
  "_format": "hh-sol-artifact-1",
  "contractName": "MatchMaking",
  "sourceName": "contracts/MatchMaking.sol",
  "abi": [
    {
      "inputs": [
        {
          "internalType": "uint256",
          "name": "updateInterval",
          "type": "uint256"
        },
        {
          "internalType": "address",
          "name": "_clashTokenAddress",
          "type": "address"
        }
      ],
      "stateMutability": "nonpayable",
      "type": "constructor"
    },
    {
      "anonymous": false,
      "inputs": [
        {
          "indexed": true,
          "internalType": "uint256",
          "name": "matchId",
          "type": "uint256"
        },
        {
          "indexed": true,
          "internalType": "address",
          "name": "p1",
          "type": "address"
        },
        {
          "indexed": true,
          "internalType": "address",
          "name": "p2",
          "type": "address"
        },
        {
          "components": [
            {
              "components": [
                {
                  "internalType": "uint256",
                  "name": "hp",
                  "type": "uint256"
                },
                {
                  "internalType": "uint256",
                  "name": "maxHp",
                  "type": "uint256"
                },
                {
                  "internalType": "uint256",
                  "name": "atk",
                  "type": "uint256"
                },
                {
                  "internalType": "string",
                  "name": "url",
                  "type": "string"
                }
              ],
              "internalType": "struct Card",
              "name": "p1_card1",
              "type": "tuple"
            },
            {
              "components": [
                {
                  "internalType": "uint256",
                  "name": "hp",
                  "type": "uint256"
                },
                {
                  "internalType": "uint256",
                  "name": "maxHp",
                  "type": "uint256"
                },
                {
                  "internalType": "uint256",
                  "name": "atk",
                  "type": "uint256"
                },
                {
                  "internalType": "string",
                  "name": "url",
                  "type": "string"
                }
              ],
              "internalType": "struct Card",
              "name": "p1_card2",
              "type": "tuple"
            },
            {
              "internalType": "bool",
              "name": "p1_ready",
              "type": "bool"
            },
            {
              "components": [
                {
                  "internalType": "uint256",
                  "name": "hp",
                  "type": "uint256"
                },
                {
                  "internalType": "uint256",
                  "name": "maxHp",
                  "type": "uint256"
                },
                {
                  "internalType": "uint256",
                  "name": "atk",
                  "type": "uint256"
                },
                {
                  "internalType": "string",
                  "name": "url",
                  "type": "string"
                }
              ],
              "internalType": "struct Card",
              "name": "p2_card1",
              "type": "tuple"
            },
            {
              "components": [
                {
                  "internalType": "uint256",
                  "name": "hp",
                  "type": "uint256"
                },
                {
                  "internalType": "uint256",
                  "name": "maxHp",
                  "type": "uint256"
                },
                {
                  "internalType": "uint256",
                  "name": "atk",
                  "type": "uint256"
                },
                {
                  "internalType": "string",
                  "name": "url",
                  "type": "string"
                }
              ],
              "internalType": "struct Card",
              "name": "p2_card2",
              "type": "tuple"
            },
            {
              "internalType": "bool",
              "name": "p2_ready",
              "type": "bool"
            }
          ],
          "indexed": false,
          "internalType": "struct Round",
          "name": "round",
          "type": "tuple"
        }
      ],
      "name": "EndOfRound",
      "type": "event"
    },
    {
      "anonymous": false,
      "inputs": [
        {
          "indexed": true,
          "internalType": "address",
          "name": "opponent",
          "type": "address"
        },
        {
          "indexed": true,
          "internalType": "uint256",
          "name": "matchId",
          "type": "uint256"
        },
        {
          "components": [
            {
              "internalType": "uint256",
              "name": "hp",
              "type": "uint256"
            },
            {
              "internalType": "uint256",
              "name": "maxHp",
              "type": "uint256"
            },
            {
              "internalType": "uint256",
              "name": "atk",
              "type": "uint256"
            },
            {
              "internalType": "string",
              "name": "url",
              "type": "string"
            }
          ],
          "indexed": false,
          "internalType": "struct Card",
          "name": "card_1",
          "type": "tuple"
        },
        {
          "components": [
            {
              "internalType": "uint256",
              "name": "hp",
              "type": "uint256"
            },
            {
              "internalType": "uint256",
              "name": "maxHp",
              "type": "uint256"
            },
            {
              "internalType": "uint256",
              "name": "atk",
              "type": "uint256"
            },
            {
              "internalType": "string",
              "name": "url",
              "type": "string"
            }
          ],
          "indexed": false,
          "internalType": "struct Card",
          "name": "card_2",
          "type": "tuple"
        }
      ],
      "name": "OpponentCardSubmit",
      "type": "event"
    },
    {
      "anonymous": false,
      "inputs": [
        {
          "indexed": true,
          "internalType": "address",
          "name": "p1",
          "type": "address"
        },
        {
          "indexed": true,
          "internalType": "address",
          "name": "p2",
          "type": "address"
        },
        {
          "indexed": true,
          "internalType": "uint256",
          "name": "matchId",
          "type": "uint256"
        }
      ],
      "name": "PublishMatchId",
      "type": "event"
    },
    {
      "inputs": [
        {
          "internalType": "bytes",
          "name": "",
          "type": "bytes"
        }
      ],
      "name": "checkUpkeep",
      "outputs": [
        {
          "internalType": "bool",
          "name": "upkeepNeeded",
          "type": "bool"
        },
        {
          "internalType": "bytes",
          "name": "performData",
          "type": "bytes"
        }
      ],
      "stateMutability": "view",
      "type": "function"
    },
    {
      "inputs": [],
      "name": "clashToken",
      "outputs": [
        {
          "internalType": "contract IERC20",
          "name": "",
          "type": "address"
        }
      ],
      "stateMutability": "view",
      "type": "function"
    },
    {
      "inputs": [],
      "name": "counter",
      "outputs": [
        {
          "internalType": "uint256",
          "name": "",
          "type": "uint256"
        }
      ],
      "stateMutability": "view",
      "type": "function"
    },
    {
      "inputs": [
        {
          "internalType": "address",
          "name": "addr",
          "type": "address"
        },
        {
          "internalType": "uint256",
          "name": "stake",
          "type": "uint256"
        }
      ],
      "name": "getMatch",
      "outputs": [
        {
          "components": [
            {
              "internalType": "address",
              "name": "addr",
              "type": "address"
            },
            {
              "internalType": "uint256",
              "name": "stake",
              "type": "uint256"
            },
            {
              "internalType": "bool",
              "name": "active",
              "type": "bool"
            }
          ],
          "internalType": "struct Player",
          "name": "opponent",
          "type": "tuple"
        }
      ],
      "stateMutability": "nonpayable",
      "type": "function"
    },
    {
      "inputs": [],
      "name": "interval",
      "outputs": [
        {
          "internalType": "uint256",
          "name": "",
          "type": "uint256"
        }
      ],
      "stateMutability": "view",
      "type": "function"
    },
    {
      "inputs": [
        {
          "internalType": "address",
          "name": "addr",
          "type": "address"
        },
        {
          "internalType": "uint256",
          "name": "stake",
          "type": "uint256"
        }
      ],
      "name": "joinQueue",
      "outputs": [],
      "stateMutability": "nonpayable",
      "type": "function"
    },
    {
      "inputs": [],
      "name": "lastTimeStamp",
      "outputs": [
        {
          "internalType": "uint256",
          "name": "",
          "type": "uint256"
        }
      ],
      "stateMutability": "view",
      "type": "function"
    },
    {
      "inputs": [],
      "name": "pairOpponents",
      "outputs": [],
      "stateMutability": "nonpayable",
      "type": "function"
    },
    {
      "inputs": [
        {
          "internalType": "uint256",
          "name": "amount",
          "type": "uint256"
        }
      ],
      "name": "payWinner",
      "outputs": [],
      "stateMutability": "nonpayable",
      "type": "function"
    },
    {
      "inputs": [
        {
          "internalType": "bytes",
          "name": "",
          "type": "bytes"
        }
      ],
      "name": "performUpkeep",
      "outputs": [],
      "stateMutability": "nonpayable",
      "type": "function"
    },
    {
      "inputs": [
        {
          "internalType": "uint256",
          "name": "matchId",
          "type": "uint256"
        },
        {
          "internalType": "address",
          "name": "player",
          "type": "address"
        },
        {
          "internalType": "uint256",
          "name": "hp_card1",
          "type": "uint256"
        },
        {
          "internalType": "uint256",
          "name": "maxHp_card1",
          "type": "uint256"
        },
        {
          "internalType": "uint256",
          "name": "atk_card1",
          "type": "uint256"
        },
        {
          "internalType": "string",
          "name": "url_card1",
          "type": "string"
        },
        {
          "internalType": "uint256",
          "name": "hp_card2",
          "type": "uint256"
        },
        {
          "internalType": "uint256",
          "name": "maxHp_card2",
          "type": "uint256"
        },
        {
          "internalType": "uint256",
          "name": "atk_card2",
          "type": "uint256"
        },
        {
          "internalType": "string",
          "name": "url_card2",
          "type": "string"
        }
      ],
      "name": "submitCard",
      "outputs": [],
      "stateMutability": "nonpayable",
      "type": "function"
    }
  ],
  "bytecode": "0x60a06040523480156200001157600080fd5b50604051620031c3380380620031c38339818101604052810190620000379190620000c5565b816080818152505042600381905550600060028190555080600460006101000a81548173ffffffffffffffffffffffffffffffffffffffff021916908373ffffffffffffffffffffffffffffffffffffffff160217905550505062000178565b600081519050620000a88162000144565b92915050565b600081519050620000bf816200015e565b92915050565b60008060408385031215620000d957600080fd5b6000620000e985828601620000ae565b9250506020620000fc8582860162000097565b9150509250929050565b600062000113826200011a565b9050919050565b600073ffffffffffffffffffffffffffffffffffffffff82169050919050565b6000819050919050565b6200014f8162000106565b81146200015b57600080fd5b50565b62000169816200013a565b81146200017557600080fd5b50565b608051613021620001a260003960008181610209015281816106060152610b4e01526130216000f3fe608060405234801561001057600080fd5b50600436106100a95760003560e01c80638f2e2069116100715780638f2e206914610167578063947a36fb14610171578063a5c0449f1461018f578063bb950ec4146101ab578063cb20d4cb146101c7578063ee821fc4146101e3576100a9565b80633f3b3b27146100ae5780634585e33b146100cc57806350ab3871146100e857806361bc221a146101185780636e04ff0d14610136575b600080fd5b6100b6610201565b6040516100c39190612b1a565b60405180910390f35b6100e660048036038101906100e191906124f5565b610207565b005b61010260048036038101906100fd9190612490565b610265565b60405161010f9190612add565b60405180910390f35b6101206105fa565b60405161012d9190612b1a565b60405180910390f35b610150600480360381019061014b91906124f5565b610600565b60405161015e9291906129fb565b60405180910390f35b61016f61063d565b005b610179610b4c565b6040516101869190612b1a565b60405180910390f35b6101a960048036038101906101a4919061253a565b610b70565b005b6101c560048036038101906101c09190612490565b610c61565b005b6101e160048036038101906101dc9190612563565b610e2d565b005b6101eb611b3d565b6040516101f89190612a2b565b60405180910390f35b60035481565b7f0000000000000000000000000000000000000000000000000000000000000000600354426102369190612c5b565b1115610261574260038190555060016002546102529190612bd4565b60028190555061026061063d565b5b5050565b61026d611f35565b60008060009050600060016000805490506102889190612c5b565b90505b6000811061041357600081815481106102cd577f4e487b7100000000000000000000000000000000000000000000000000000000600052603260045260246000fd5b906000526020600020906003020160020160009054906101000a900460ff1680156103425750846000828154811061032e577f4e487b7100000000000000000000000000000000000000000000000000000000600052603260045260246000fd5b906000526020600020906003020160010154145b80156103e557508573ffffffffffffffffffffffffffffffffffffffff166000828154811061039a577f4e487b7100000000000000000000000000000000000000000000000000000000600052603260045260246000fd5b906000526020600020906003020160000160009054906101000a900473ffffffffffffffffffffffffffffffffffffffff1673ffffffffffffffffffffffffffffffffffffffff1614155b156103f257809250600191505b600081141561040057610413565b808061040b90612d7e565b91505061028b565b5080610454576040517f08c379a000000000000000000000000000000000000000000000000000000000815260040161044b90612a46565b60405180910390fd5b600080838154811061048f577f4e487b7100000000000000000000000000000000000000000000000000000000600052603260045260246000fd5b906000526020600020906003020160020160006101000a81548160ff0219169083151502179055506000806104c387611b63565b815481106104fa577f4e487b7100000000000000000000000000000000000000000000000000000000600052603260045260246000fd5b906000526020600020906003020160020160006101000a81548160ff0219169083151502179055506000828154811061055c577f4e487b7100000000000000000000000000000000000000000000000000000000600052603260045260246000fd5b90600052602060002090600302016040518060600160405290816000820160009054906101000a900473ffffffffffffffffffffffffffffffffffffffff1673ffffffffffffffffffffffffffffffffffffffff1673ffffffffffffffffffffffffffffffffffffffff168152602001600182015481526020016002820160009054906101000a900460ff1615151515815250509250505092915050565b60025481565b600060607f0000000000000000000000000000000000000000000000000000000000000000600354426106339190612c5b565b1191509250929050565b60005b600080549050811015610b495760008181548110610687577f4e487b7100000000000000000000000000000000000000000000000000000000600052603260045260246000fd5b906000526020600020906003020160020160009054906101000a900460ff1680156106b757506001600080549050115b15610b365760008082815481106106f7577f4e487b7100000000000000000000000000000000000000000000000000000000600052603260045260246000fd5b90600052602060002090600302016040518060600160405290816000820160009054906101000a900473ffffffffffffffffffffffffffffffffffffffff1673ffffffffffffffffffffffffffffffffffffffff1673ffffffffffffffffffffffffffffffffffffffff168152602001600182015481526020016002820160009054906101000a900460ff161515151581525050905060006107a182600001518360200151610265565b905060006107ad611c53565b90506000600160008381526020019081526020016000209050838160000160008201518160000160006101000a81548173ffffffffffffffffffffffffffffffffffffffff021916908373ffffffffffffffffffffffffffffffffffffffff1602179055506020820151816001015560408201518160020160006101000a81548160ff021916908315150217905550905050828160030160008201518160000160006101000a81548173ffffffffffffffffffffffffffffffffffffffff021916908373ffffffffffffffffffffffffffffffffffffffff1602179055506020820151816001015560408201518160020160006101000a81548160ff02191690831515021790555090505060088160070160006101000a81548160ff021916908360ff16021790555060088160070160016101000a81548160ff021916908360ff160217905550806001600084815260200190815260200160002060008201816000016000820160009054906101000a900473ffffffffffffffffffffffffffffffffffffffff168160000160006101000a81548173ffffffffffffffffffffffffffffffffffffffff021916908373ffffffffffffffffffffffffffffffffffffffff160217905550600182015481600101556002820160009054906101000a900460ff168160020160006101000a81548160ff021916908315150217905550505060038201816003016000820160009054906101000a900473ffffffffffffffffffffffffffffffffffffffff168160000160006101000a81548173ffffffffffffffffffffffffffffffffffffffff021916908373ffffffffffffffffffffffffffffffffffffffff160217905550600182015481600101556002820160009054906101000a900460ff168160020160006101000a81548160ff02191690831515021790555050506006820181600601908054610a6e929190611f6e565b506007820160009054906101000a900460ff168160070160006101000a81548160ff021916908360ff1602179055506007820160019054906101000a900460ff168160070160016101000a81548160ff021916908360ff16021790555090505081836000015173ffffffffffffffffffffffffffffffffffffffff16856000015173ffffffffffffffffffffffffffffffffffffffff167fc66aa8485d8a2d56027221fd56d205277100c891691b158d82a6082e0edeb5d960405160405180910390a4505050505b8080610b4190612e0b565b915050610640565b50565b7f000000000000000000000000000000000000000000000000000000000000000081565b600460009054906101000a900473ffffffffffffffffffffffffffffffffffffffff1673ffffffffffffffffffffffffffffffffffffffff1663a9059cbb33836040518363ffffffff1660e01b8152600401610bcd9291906129d2565b602060405180830381600087803b158015610be757600080fd5b505af1158015610bfb573d6000803e3d6000fd5b505050506040513d601f19601f82011682018060405250810190610c1f91906124cc565b610c5e576040517f08c379a0000000000000000000000000000000000000000000000000000000008152600401610c5590612a86565b60405180910390fd5b50565b600460009054906101000a900473ffffffffffffffffffffffffffffffffffffffff1673ffffffffffffffffffffffffffffffffffffffff166323b872dd3330846040518463ffffffff1660e01b8152600401610cc09392919061299b565b602060405180830381600087803b158015610cda57600080fd5b505af1158015610cee573d6000803e3d6000fd5b505050506040513d601f19601f82011682018060405250810190610d1291906124cc565b610d51576040517f08c379a0000000000000000000000000000000000000000000000000000000008152600401610d4890612a66565b60405180910390fd5b600060405180606001604052808473ffffffffffffffffffffffffffffffffffffffff168152602001838152602001600115158152509050600081908060018154018082558091505060019003906000526020600020906003020160009091909190915060008201518160000160006101000a81548173ffffffffffffffffffffffffffffffffffffffff021916908373ffffffffffffffffffffffffffffffffffffffff1602179055506020820151816001015560408201518160020160006101000a81548160ff0219169083151502179055505050505050565b6000600160008c81526020019081526020016000209050600081600601805490509050610e58612140565b600082141561122457826006016001816001815401808255809150500390600052602060002090505082600601600081548110610ebe577f4e487b7100000000000000000000000000000000000000000000000000000000600052603260045260246000fd5b90600052602060002090601202016040518060c001604052908160008201604051806080016040529081600082015481526020016001820154815260200160028201548152602001600382018054610f1590612da8565b80601f0160208091040260200160405190810160405280929190818152602001828054610f4190612da8565b8015610f8e5780601f10610f6357610100808354040283529160200191610f8e565b820191906000526020600020905b815481529060010190602001808311610f7157829003601f168201915b505050505081525050815260200160048201604051806080016040529081600082015481526020016001820154815260200160028201548152602001600382018054610fd990612da8565b80601f016020809104026020016040519081016040528092919081815260200182805461100590612da8565b80156110525780601f1061102757610100808354040283529160200191611052565b820191906000526020600020905b81548152906001019060200180831161103557829003601f168201915b50505050508152505081526020016008820160009054906101000a900460ff16151515158152602001600982016040518060800160405290816000820154815260200160018201548152602001600282015481526020016003820180546110b890612da8565b80601f01602080910402602001604051908101604052809291908181526020018280546110e490612da8565b80156111315780601f1061110657610100808354040283529160200191611131565b820191906000526020600020905b81548152906001019060200180831161111457829003601f168201915b5050505050815250508152602001600d820160405180608001604052908160008201548152602001600182015481526020016002820154815260200160038201805461117c90612da8565b80601f01602080910402602001604051908101604052809291908181526020018280546111a890612da8565b80156111f55780601f106111ca576101008083540402835291602001916111f5565b820191906000526020600020905b8154815290600101906020018083116111d857829003601f168201915b50505050508152505081526020016011820160009054906101000a900460ff16151515158152505090506119c8565b6000836006016001846112379190612c5b565b8154811061126e577f4e487b7100000000000000000000000000000000000000000000000000000000600052603260045260246000fd5b906000526020600020906012020190508060080160009054906101000a900460ff1680156112aa57508060110160009054906101000a900460ff165b1561167157836006016001816001815401808255809150500390600052602060002090505083600601838154811061130b577f4e487b7100000000000000000000000000000000000000000000000000000000600052603260045260246000fd5b90600052602060002090601202016040518060c00160405290816000820160405180608001604052908160008201548152602001600182015481526020016002820154815260200160038201805461136290612da8565b80601f016020809104026020016040519081016040528092919081815260200182805461138e90612da8565b80156113db5780601f106113b0576101008083540402835291602001916113db565b820191906000526020600020905b8154815290600101906020018083116113be57829003601f168201915b50505050508152505081526020016004820160405180608001604052908160008201548152602001600182015481526020016002820154815260200160038201805461142690612da8565b80601f016020809104026020016040519081016040528092919081815260200182805461145290612da8565b801561149f5780601f106114745761010080835404028352916020019161149f565b820191906000526020600020905b81548152906001019060200180831161148257829003601f168201915b50505050508152505081526020016008820160009054906101000a900460ff161515151581526020016009820160405180608001604052908160008201548152602001600182015481526020016002820154815260200160038201805461150590612da8565b80601f016020809104026020016040519081016040528092919081815260200182805461153190612da8565b801561157e5780601f106115535761010080835404028352916020019161157e565b820191906000526020600020905b81548152906001019060200180831161156157829003601f168201915b5050505050815250508152602001600d82016040518060800160405290816000820154815260200160018201548152602001600282015481526020016003820180546115c990612da8565b80601f01602080910402602001604051908101604052809291908181526020018280546115f590612da8565b80156116425780601f1061161757610100808354040283529160200191611642565b820191906000526020600020905b81548152906001019060200180831161162557829003601f168201915b50505050508152505081526020016011820160009054906101000a900460ff16151515158152505091506119c6565b806040518060c0016040529081600082016040518060800160405290816000820154815260200160018201548152602001600282015481526020016003820180546116bb90612da8565b80601f01602080910402602001604051908101604052809291908181526020018280546116e790612da8565b80156117345780601f1061170957610100808354040283529160200191611734565b820191906000526020600020905b81548152906001019060200180831161171757829003601f168201915b50505050508152505081526020016004820160405180608001604052908160008201548152602001600182015481526020016002820154815260200160038201805461177f90612da8565b80601f01602080910402602001604051908101604052809291908181526020018280546117ab90612da8565b80156117f85780601f106117cd576101008083540402835291602001916117f8565b820191906000526020600020905b8154815290600101906020018083116117db57829003601f168201915b50505050508152505081526020016008820160009054906101000a900460ff161515151581526020016009820160405180608001604052908160008201548152602001600182015481526020016002820154815260200160038201805461185e90612da8565b80601f016020809104026020016040519081016040528092919081815260200182805461188a90612da8565b80156118d75780601f106118ac576101008083540402835291602001916118d7565b820191906000526020600020905b8154815290600101906020018083116118ba57829003601f168201915b5050505050815250508152602001600d820160405180608001604052908160008201548152602001600182015481526020016002820154815260200160038201805461192290612da8565b80601f016020809104026020016040519081016040528092919081815260200182805461194e90612da8565b801561199b5780601f106119705761010080835404028352916020019161199b565b820191906000526020600020905b81548152906001019060200180831161197e57829003601f168201915b50505050508152505081526020016011820160009054906101000a900460ff16151515158152505091505b505b600060405180608001604052808d81526020018c81526020018b81526020018a8152509050600060405180608001604052808a81526020018981526020018881526020018781525090508d73ffffffffffffffffffffffffffffffffffffffff168560000160000160009054906101000a900473ffffffffffffffffffffffffffffffffffffffff1673ffffffffffffffffffffffffffffffffffffffff161415611a95578183600001819052508083602001819052506001836040019015159081151581525050611ab9565b81836060018190525080836080018190525060018360a00190151590811515815250505b8e8e73ffffffffffffffffffffffffffffffffffffffff167f83f6b09e4b78d3c7fa9a5f649a3a5bc51599c18848c59172c96a0434080a957b8484604051611b02929190612aa6565b60405180910390a382604001518015611b1c57508260a001515b15611b2c57611b2b8f84611c86565b5b505050505050505050505050505050565b600460009054906101000a900473ffffffffffffffffffffffffffffffffffffffff1681565b6000806001600080549050611b789190612c5b565b90505b60008110611c4c578273ffffffffffffffffffffffffffffffffffffffff1660008281548110611bd4577f4e487b7100000000000000000000000000000000000000000000000000000000600052603260045260246000fd5b906000526020600020906003020160000160009054906101000a900473ffffffffffffffffffffffffffffffffffffffff1673ffffffffffffffffffffffffffffffffffffffff161415611c2b5780915050611c4e565b6000811415611c3957611c4c565b8080611c4490612d7e565b915050611b7b565b505b919050565b60004442604051602001611c6892919061296f565b6040516020818303038152906040528051906020012060001c905090565b6000816020015160400151826000015160400151611ca49190612bd4565b90506000826020015160000151836000015160000151611cc49190612bd4565b90506000836080015160400151846060015160400151611ce49190612bd4565b90506000846080015160000151856060015160000151611d049190612bd4565b905060008084841115611d6557600091506002600160008a815260200190815260200160002060070160008282829054906101000a900460ff16611d489190612c8f565b92506101000a81548160ff021916908360ff160217905550611d74565b8385611d719190612c5b565b91505b82861115611dd057600090506002600160008a815260200190815260200160002060070160018282829054906101000a900460ff16611db39190612c8f565b92506101000a81548160ff021916908360ff160217905550611ddf565b8583611ddc9190612c5b565b90505b600282611dec9190612c2a565b87600001516000018181525050600282611e069190612c2a565b87602001516000018181525050600281611e209190612c2a565b87606001516000018181525050600281611e3a9190612c2a565b876080015160000181815250506000600160008a815260200190815260200160002060000160000160009054906101000a900473ffffffffffffffffffffffffffffffffffffffff1690506000600160008b815260200190815260200160002060030160000160009054906101000a900473ffffffffffffffffffffffffffffffffffffffff1690508073ffffffffffffffffffffffffffffffffffffffff168273ffffffffffffffffffffffffffffffffffffffff168b7f8b2337f139580f88043647652f2305f0e09c12f89e1298fffe1009cc903d1b408c604051611f219190612af8565b60405180910390a450505050505050505050565b6040518060600160405280600073ffffffffffffffffffffffffffffffffffffffff168152602001600081526020016000151581525090565b82805482825590600052602060002090601202810192821561212f5760005260206000209160120282015b8281111561212e57828260008201816000016000820154816000015560018201548160010155600282015481600201556003820181600301908054611fdd90612da8565b611fe8929190612192565b5050506004820181600401600082015481600001556001820154816001015560028201548160020155600382018160030190805461202590612da8565b612030929190612192565b5050506008820160009054906101000a900460ff168160080160006101000a81548160ff0219169083151502179055506009820181600901600082015481600001556001820154816001015560028201548160020155600382018160030190805461209a90612da8565b6120a5929190612192565b505050600d820181600d0160008201548160000155600182015481600101556002820154816002015560038201816003019080546120e290612da8565b6120ed929190612192565b5050506011820160009054906101000a900460ff168160110160006101000a81548160ff021916908315150217905550505091601201919060120190611f99565b5b50905061213c919061221f565b5090565b6040518060c0016040528061215361231a565b815260200161216061231a565b815260200160001515815260200161217661231a565b815260200161218361231a565b81526020016000151581525090565b82805461219e90612da8565b90600052602060002090601f0160209004810192826121c0576000855561220e565b82601f106121d1578054855561220e565b8280016001018555821561220e57600052602060002091601f016020900482015b8281111561220d5782548255916001019190600101906121f2565b5b50905061221b9190612342565b5090565b5b8082111561231657600080820160008082016000905560018201600090556002820160009055600382016000612256919061235f565b50506004820160008082016000905560018201600090556002820160009055600382016000612285919061235f565b50506008820160006101000a81549060ff021916905560098201600080820160009055600182016000905560028201600090556003820160006122c8919061235f565b5050600d8201600080820160009055600182016000905560028201600090556003820160006122f7919061235f565b50506011820160006101000a81549060ff021916905550601201612220565b5090565b6040518060800160405280600081526020016000815260200160008152602001606081525090565b5b8082111561235b576000816000905550600101612343565b5090565b50805461236b90612da8565b6000825580601f1061237d575061239c565b601f01602090049060005260206000209081019061239b9190612342565b5b50565b60006123b26123ad84612b5a565b612b35565b9050828152602081018484840111156123ca57600080fd5b6123d5848285612d3c565b509392505050565b6000813590506123ec81612fa6565b92915050565b60008151905061240181612fbd565b92915050565b60008083601f84011261241957600080fd5b8235905067ffffffffffffffff81111561243257600080fd5b60208301915083600182028301111561244a57600080fd5b9250929050565b600082601f83011261246257600080fd5b813561247284826020860161239f565b91505092915050565b60008135905061248a81612fd4565b92915050565b600080604083850312156124a357600080fd5b60006124b1858286016123dd565b92505060206124c28582860161247b565b9150509250929050565b6000602082840312156124de57600080fd5b60006124ec848285016123f2565b91505092915050565b6000806020838503121561250857600080fd5b600083013567ffffffffffffffff81111561252257600080fd5b61252e85828601612407565b92509250509250929050565b60006020828403121561254c57600080fd5b600061255a8482850161247b565b91505092915050565b6000806000806000806000806000806101408b8d03121561258357600080fd5b60006125918d828e0161247b565b9a505060206125a28d828e016123dd565b99505060406125b38d828e0161247b565b98505060606125c48d828e0161247b565b97505060806125d58d828e0161247b565b96505060a08b013567ffffffffffffffff8111156125f257600080fd5b6125fe8d828e01612451565b95505060c061260f8d828e0161247b565b94505060e06126208d828e0161247b565b9350506101006126328d828e0161247b565b9250506101208b013567ffffffffffffffff81111561265057600080fd5b61265c8d828e01612451565b9150509295989b9194979a5092959850565b61267781612cc3565b82525050565b61268681612cc3565b82525050565b61269581612cd5565b82525050565b6126a481612cd5565b82525050565b60006126b582612b8b565b6126bf8185612ba1565b93506126cf818560208601612d4b565b6126d881612f1a565b840191505092915050565b6126ec81612d18565b82525050565b60006126fd82612b96565b6127078185612bb2565b9350612717818560208601612d4b565b61272081612f1a565b840191505092915050565b6000612738601883612bc3565b915061274382612f2b565b602082019050919050565b600061275b600683612bc3565b915061276682612f54565b602082019050919050565b600061277e601483612bc3565b915061278982612f7d565b602082019050919050565b60006080830160008301516127ac600086018261293a565b5060208301516127bf602086018261293a565b5060408301516127d2604086018261293a565b50606083015184820360608601526127ea82826126f2565b9150508091505092915050565b600060808301600083015161280f600086018261293a565b506020830151612822602086018261293a565b506040830151612835604086018261293a565b506060830151848203606086015261284d82826126f2565b9150508091505092915050565b606082016000820151612870600085018261266e565b506020820151612883602085018261293a565b506040820151612896604085018261268c565b50505050565b600060c08301600083015184820360008601526128b98282612794565b915050602083015184820360208601526128d38282612794565b91505060408301516128e8604086018261268c565b50606083015184820360608601526129008282612794565b9150506080830151848203608086015261291a8282612794565b91505060a083015161292f60a086018261268c565b508091505092915050565b61294381612d01565b82525050565b61295281612d01565b82525050565b61296961296482612d01565b612e54565b82525050565b600061297b8285612958565b60208201915061298b8284612958565b6020820191508190509392505050565b60006060820190506129b0600083018661267d565b6129bd602083018561267d565b6129ca6040830184612949565b949350505050565b60006040820190506129e7600083018561267d565b6129f46020830184612949565b9392505050565b6000604082019050612a10600083018561269b565b8181036020830152612a2281846126aa565b90509392505050565b6000602082019050612a4060008301846126e3565b92915050565b60006020820190508181036000830152612a5f8161272b565b9050919050565b60006020820190508181036000830152612a7f8161274e565b9050919050565b60006020820190508181036000830152612a9f81612771565b9050919050565b60006040820190508181036000830152612ac081856127f7565b90508181036020830152612ad481846127f7565b90509392505050565b6000606082019050612af2600083018461285a565b92915050565b60006020820190508181036000830152612b12818461289c565b905092915050565b6000602082019050612b2f6000830184612949565b92915050565b6000612b3f612b50565b9050612b4b8282612dda565b919050565b6000604051905090565b600067ffffffffffffffff821115612b7557612b74612eeb565b5b612b7e82612f1a565b9050602081019050919050565b600081519050919050565b600081519050919050565b600082825260208201905092915050565b600082825260208201905092915050565b600082825260208201905092915050565b6000612bdf82612d01565b9150612bea83612d01565b9250827fffffffffffffffffffffffffffffffffffffffffffffffffffffffffffffffff03821115612c1f57612c1e612e5e565b5b828201905092915050565b6000612c3582612d01565b9150612c4083612d01565b925082612c5057612c4f612e8d565b5b828204905092915050565b6000612c6682612d01565b9150612c7183612d01565b925082821015612c8457612c83612e5e565b5b828203905092915050565b6000612c9a82612d0b565b9150612ca583612d0b565b925082821015612cb857612cb7612e5e565b5b828203905092915050565b6000612cce82612ce1565b9050919050565b60008115159050919050565b600073ffffffffffffffffffffffffffffffffffffffff82169050919050565b6000819050919050565b600060ff82169050919050565b6000612d2382612d2a565b9050919050565b6000612d3582612ce1565b9050919050565b82818337600083830152505050565b60005b83811015612d69578082015181840152602081019050612d4e565b83811115612d78576000848401525b50505050565b6000612d8982612d01565b91506000821415612d9d57612d9c612e5e565b5b600182039050919050565b60006002820490506001821680612dc057607f821691505b60208210811415612dd457612dd3612ebc565b5b50919050565b612de382612f1a565b810181811067ffffffffffffffff82111715612e0257612e01612eeb565b5b80604052505050565b6000612e1682612d01565b91507fffffffffffffffffffffffffffffffffffffffffffffffffffffffffffffffff821415612e4957612e48612e5e565b5b600182019050919050565b6000819050919050565b7f4e487b7100000000000000000000000000000000000000000000000000000000600052601160045260246000fd5b7f4e487b7100000000000000000000000000000000000000000000000000000000600052601260045260246000fd5b7f4e487b7100000000000000000000000000000000000000000000000000000000600052602260045260246000fd5b7f4e487b7100000000000000000000000000000000000000000000000000000000600052604160045260246000fd5b6000601f19601f8301169050919050565b7f43616e6e6f742066696e6420616e206f70706f6e656e742e0000000000000000600082015250565b7f5061792055700000000000000000000000000000000000000000000000000000600082015250565b7f436f756c64206e6f74207061792077696e6e6572000000000000000000000000600082015250565b612faf81612cc3565b8114612fba57600080fd5b50565b612fc681612cd5565b8114612fd157600080fd5b50565b612fdd81612d01565b8114612fe857600080fd5b5056fea26469706673582212203ba2ddd1ed48fd76af93bbbf7401bfbae5b3edb49c4df935797f21003d79ba0164736f6c63430008040033",
  "linkReferences": {},
  "deployedLinkReferences": {}
}