{
  "_format": "hh-sol-artifact-1",
  "contractName": "ClashOfCards",
  "sourceName": "contracts/ClashNFT.sol",
  "abi": [
    {
      "inputs": [
        {
          "internalType": "address",
          "name": "_clashTokenAddress",
          "type": "address"
        }
      ],
      "stateMutability": "nonpayable",
      "type": "constructor"
    },
    {
      "anonymous": false,
      "inputs": [
        {
          "indexed": true,
          "internalType": "address",
          "name": "owner",
          "type": "address"
        },
        {
          "indexed": true,
          "internalType": "address",
          "name": "approved",
          "type": "address"
        },
        {
          "indexed": true,
          "internalType": "uint256",
          "name": "tokenId",
          "type": "uint256"
        }
      ],
      "name": "Approval",
      "type": "event"
    },
    {
      "anonymous": false,
      "inputs": [
        {
          "indexed": true,
          "internalType": "address",
          "name": "owner",
          "type": "address"
        },
        {
          "indexed": true,
          "internalType": "address",
          "name": "operator",
          "type": "address"
        },
        {
          "indexed": false,
          "internalType": "bool",
          "name": "approved",
          "type": "bool"
        }
      ],
      "name": "ApprovalForAll",
      "type": "event"
    },
    {
      "anonymous": false,
      "inputs": [
        {
          "indexed": true,
          "internalType": "address",
          "name": "previousOwner",
          "type": "address"
        },
        {
          "indexed": true,
          "internalType": "address",
          "name": "newOwner",
          "type": "address"
        }
      ],
      "name": "OwnershipTransferred",
      "type": "event"
    },
    {
      "anonymous": false,
      "inputs": [
        {
          "indexed": true,
          "internalType": "address",
          "name": "from",
          "type": "address"
        },
        {
          "indexed": true,
          "internalType": "address",
          "name": "to",
          "type": "address"
        },
        {
          "indexed": true,
          "internalType": "uint256",
          "name": "tokenId",
          "type": "uint256"
        }
      ],
      "name": "Transfer",
      "type": "event"
    },
    {
      "inputs": [
        {
          "internalType": "address",
          "name": "to",
          "type": "address"
        },
        {
          "internalType": "uint256",
          "name": "tokenId",
          "type": "uint256"
        }
      ],
      "name": "approve",
      "outputs": [],
      "stateMutability": "nonpayable",
      "type": "function"
    },
    {
      "inputs": [
        {
          "internalType": "address",
          "name": "owner",
          "type": "address"
        }
      ],
      "name": "balanceOf",
      "outputs": [
        {
          "internalType": "uint256",
          "name": "",
          "type": "uint256"
        }
      ],
      "stateMutability": "view",
      "type": "function"
    },
    {
      "inputs": [],
      "name": "clashToken",
      "outputs": [
        {
          "internalType": "contract IERC20",
          "name": "",
          "type": "address"
        }
      ],
      "stateMutability": "view",
      "type": "function"
    },
    {
      "inputs": [
        {
          "internalType": "string",
          "name": "",
          "type": "string"
        }
      ],
      "name": "existingURIs",
      "outputs": [
        {
          "internalType": "uint8",
          "name": "",
          "type": "uint8"
        }
      ],
      "stateMutability": "view",
      "type": "function"
    },
    {
      "inputs": [
        {
          "internalType": "address",
          "name": "user",
          "type": "address"
        }
      ],
      "name": "getAllNFTs",
      "outputs": [
        {
          "internalType": "string[]",
          "name": "",
          "type": "string[]"
        }
      ],
      "stateMutability": "view",
      "type": "function"
    },
    {
      "inputs": [
        {
          "internalType": "uint256",
          "name": "tokenId",
          "type": "uint256"
        }
      ],
      "name": "getApproved",
      "outputs": [
        {
          "internalType": "address",
          "name": "",
          "type": "address"
        }
      ],
      "stateMutability": "view",
      "type": "function"
    },
    {
      "inputs": [
        {
          "internalType": "address",
          "name": "owner",
          "type": "address"
        },
        {
          "internalType": "address",
          "name": "operator",
          "type": "address"
        }
      ],
      "name": "isApprovedForAll",
      "outputs": [
        {
          "internalType": "bool",
          "name": "",
          "type": "bool"
        }
      ],
      "stateMutability": "view",
      "type": "function"
    },
    {
      "inputs": [
        {
          "internalType": "string",
          "name": "uri",
          "type": "string"
        }
      ],
      "name": "isContentOwned",
      "outputs": [
        {
          "internalType": "bool",
          "name": "",
          "type": "bool"
        }
      ],
      "stateMutability": "view",
      "type": "function"
    },
    {
      "inputs": [
        {
          "internalType": "address",
          "name": "to",
          "type": "address"
        },
        {
          "internalType": "string[]",
          "name": "uri",
          "type": "string[]"
        }
      ],
      "name": "mintMany",
      "outputs": [],
      "stateMutability": "nonpayable",
      "type": "function"
    },
    {
      "inputs": [],
      "name": "name",
      "outputs": [
        {
          "internalType": "string",
          "name": "",
          "type": "string"
        }
      ],
      "stateMutability": "view",
      "type": "function"
    },
    {
      "inputs": [],
      "name": "owner",
      "outputs": [
        {
          "internalType": "address",
          "name": "",
          "type": "address"
        }
      ],
      "stateMutability": "view",
      "type": "function"
    },
    {
      "inputs": [
        {
          "internalType": "uint256",
          "name": "tokenId",
          "type": "uint256"
        }
      ],
      "name": "ownerOf",
      "outputs": [
        {
          "internalType": "address",
          "name": "",
          "type": "address"
        }
      ],
      "stateMutability": "view",
      "type": "function"
    },
    {
      "inputs": [
        {
          "internalType": "address",
          "name": "recipient",
          "type": "address"
        },
        {
          "internalType": "string",
          "name": "pinataURI",
          "type": "string"
        },
        {
          "internalType": "uint256",
          "name": "amount",
          "type": "uint256"
        }
      ],
      "name": "payToMint",
      "outputs": [
        {
          "internalType": "uint256",
          "name": "",
          "type": "uint256"
        }
      ],
      "stateMutability": "payable",
      "type": "function"
    },
    {
      "inputs": [],
      "name": "renounceOwnership",
      "outputs": [],
      "stateMutability": "nonpayable",
      "type": "function"
    },
    {
      "inputs": [
        {
          "internalType": "address",
          "name": "to",
          "type": "address"
        },
        {
          "internalType": "string",
          "name": "uri",
          "type": "string"
        }
      ],
      "name": "safeMint",
      "outputs": [],
      "stateMutability": "nonpayable",
      "type": "function"
    },
    {
      "inputs": [
        {
          "internalType": "address",
          "name": "from",
          "type": "address"
        },
        {
          "internalType": "address",
          "name": "to",
          "type": "address"
        },
        {
          "internalType": "uint256",
          "name": "tokenId",
          "type": "uint256"
        }
      ],
      "name": "safeTransferFrom",
      "outputs": [],
      "stateMutability": "nonpayable",
      "type": "function"
    },
    {
      "inputs": [
        {
          "internalType": "address",
          "name": "from",
          "type": "address"
        },
        {
          "internalType": "address",
          "name": "to",
          "type": "address"
        },
        {
          "internalType": "uint256",
          "name": "tokenId",
          "type": "uint256"
        },
        {
          "internalType": "bytes",
          "name": "_data",
          "type": "bytes"
        }
      ],
      "name": "safeTransferFrom",
      "outputs": [],
      "stateMutability": "nonpayable",
      "type": "function"
    },
    {
      "inputs": [
        {
          "internalType": "address",
          "name": "operator",
          "type": "address"
        },
        {
          "internalType": "bool",
          "name": "approved",
          "type": "bool"
        }
      ],
      "name": "setApprovalForAll",
      "outputs": [],
      "stateMutability": "nonpayable",
      "type": "function"
    },
    {
      "inputs": [
        {
          "internalType": "bytes4",
          "name": "interfaceId",
          "type": "bytes4"
        }
      ],
      "name": "supportsInterface",
      "outputs": [
        {
          "internalType": "bool",
          "name": "",
          "type": "bool"
        }
      ],
      "stateMutability": "view",
      "type": "function"
    },
    {
      "inputs": [],
      "name": "symbol",
      "outputs": [
        {
          "internalType": "string",
          "name": "",
          "type": "string"
        }
      ],
      "stateMutability": "view",
      "type": "function"
    },
    {
      "inputs": [
        {
          "internalType": "uint256",
          "name": "tokenId",
          "type": "uint256"
        }
      ],
      "name": "tokenURI",
      "outputs": [
        {
          "internalType": "string",
          "name": "",
          "type": "string"
        }
      ],
      "stateMutability": "view",
      "type": "function"
    },
    {
      "inputs": [
        {
          "internalType": "address",
          "name": "from",
          "type": "address"
        },
        {
          "internalType": "address",
          "name": "to",
          "type": "address"
        },
        {
          "internalType": "uint256",
          "name": "tokenId",
          "type": "uint256"
        }
      ],
      "name": "transferFrom",
      "outputs": [],
      "stateMutability": "nonpayable",
      "type": "function"
    },
    {
      "inputs": [
        {
          "internalType": "address",
          "name": "newOwner",
          "type": "address"
        }
      ],
      "name": "transferOwnership",
      "outputs": [],
      "stateMutability": "nonpayable",
      "type": "function"
    },
    {
      "inputs": [
        {
          "internalType": "address",
          "name": "",
          "type": "address"
        },
        {
          "internalType": "uint256",
          "name": "",
          "type": "uint256"
        }
      ],
      "name": "userCollection",
      "outputs": [
        {
          "internalType": "string",
          "name": "",
          "type": "string"
        }
      ],
      "stateMutability": "view",
      "type": "function"
    }
  ],
  "bytecode": "0x60806040523480156200001157600080fd5b5060405162004161380380620041618339818101604052810190620000379190620002d4565b6040518060400160405280600c81526020017f436c6173684f66436172647300000000000000000000000000000000000000008152506040518060400160405280600581526020017f434c4153480000000000000000000000000000000000000000000000000000008152508160009080519060200190620000bb9291906200020d565b508060019080519060200190620000d49291906200020d565b505050620000f7620000eb6200013f60201b60201c565b6200014760201b60201c565b80600960006101000a81548173ffffffffffffffffffffffffffffffffffffffff021916908373ffffffffffffffffffffffffffffffffffffffff16021790555050620003b3565b600033905090565b6000600760009054906101000a900473ffffffffffffffffffffffffffffffffffffffff16905081600760006101000a81548173ffffffffffffffffffffffffffffffffffffffff021916908373ffffffffffffffffffffffffffffffffffffffff1602179055508173ffffffffffffffffffffffffffffffffffffffff168173ffffffffffffffffffffffffffffffffffffffff167f8be0079c531659141344cd1fd0a4f28419497f9722a3daafe3b4186f6b6457e060405160405180910390a35050565b8280546200021b9062000334565b90600052602060002090601f0160209004810192826200023f57600085556200028b565b82601f106200025a57805160ff19168380011785556200028b565b828001600101855582156200028b579182015b828111156200028a5782518255916020019190600101906200026d565b5b5090506200029a91906200029e565b5090565b5b80821115620002b95760008160009055506001016200029f565b5090565b600081519050620002ce8162000399565b92915050565b600060208284031215620002e757600080fd5b6000620002f784828501620002bd565b91505092915050565b60006200030d8262000314565b9050919050565b600073ffffffffffffffffffffffffffffffffffffffff82169050919050565b600060028204905060018216806200034d57607f821691505b602082108114156200036457620003636200036a565b5b50919050565b7f4e487b7100000000000000000000000000000000000000000000000000000000600052602260045260246000fd5b620003a48162000300565b8114620003b057600080fd5b50565b613d9e80620003c36000396000f3fe60806040526004361061014b5760003560e01c80638da5cb5b116100b6578063c87b56dd1161006f578063c87b56dd146104b9578063d204c45e146104f6578063e985e9c51461051f578063ee821fc41461055c578063f2fde38b14610587578063f37971df146105b05761014b565b80638da5cb5b146103ab57806395d89b41146103d65780639f1cabc614610401578063a22cb4651461043e578063a2614d0314610467578063b88d4fde146104905761014b565b806342842e0e1161010857806342842e0e1461028457806351e74c2a146102ad5780636352211e146102dd5780636c35628d1461031a57806370a0823114610357578063715018a6146103945761014b565b806301ffc9a71461015057806306fdde031461018d578063081812fc146101b8578063095ea7b3146101f557806310a350a71461021e57806323b872dd1461025b575b600080fd5b34801561015c57600080fd5b5061017760048036038101906101729190612a07565b6105ed565b604051610184919061302a565b60405180910390f35b34801561019957600080fd5b506101a26106cf565b6040516101af9190613060565b60405180910390f35b3480156101c457600080fd5b506101df60048036038101906101da9190612a9a565b610761565b6040516101ec9190612f6a565b60405180910390f35b34801561020157600080fd5b5061021c600480360381019061021791906129a2565b6107e6565b005b34801561022a57600080fd5b5061024560048036038101906102409190612728565b6108fe565b6040516102529190613008565b60405180910390f35b34801561026757600080fd5b50610282600480360381019061027d919061278d565b610a16565b005b34801561029057600080fd5b506102ab60048036038101906102a6919061278d565b610a76565b005b6102c760048036038101906102c2919061293b565b610a96565b6040516102d49190613302565b60405180910390f35b3480156102e957600080fd5b5061030460048036038101906102ff9190612a9a565b610ce2565b6040516103119190612f6a565b60405180910390f35b34801561032657600080fd5b50610341600480360381019061033c91906129a2565b610d94565b60405161034e9190613060565b60405180910390f35b34801561036357600080fd5b5061037e60048036038101906103799190612728565b610e4d565b60405161038b9190613302565b60405180910390f35b3480156103a057600080fd5b506103a9610f05565b005b3480156103b757600080fd5b506103c0610f8d565b6040516103cd9190612f6a565b60405180910390f35b3480156103e257600080fd5b506103eb610fb7565b6040516103f89190613060565b60405180910390f35b34801561040d57600080fd5b5061042860048036038101906104239190612a59565b611049565b604051610435919061302a565b60405180910390f35b34801561044a57600080fd5b50610465600480360381019061046091906128ab565b611084565b005b34801561047357600080fd5b5061048e60048036038101906104899190612857565b61109a565b005b34801561049c57600080fd5b506104b760048036038101906104b291906127dc565b611108565b005b3480156104c557600080fd5b506104e060048036038101906104db9190612a9a565b61116a565b6040516104ed9190613060565b60405180910390f35b34801561050257600080fd5b5061051d600480360381019061051891906128e7565b61117c565b005b34801561052b57600080fd5b5061054660048036038101906105419190612751565b6112a2565b604051610553919061302a565b60405180910390f35b34801561056857600080fd5b50610571611336565b60405161057e9190613045565b60405180910390f35b34801561059357600080fd5b506105ae60048036038101906105a99190612728565b61135c565b005b3480156105bc57600080fd5b506105d760048036038101906105d29190612a59565b611454565b6040516105e4919061331d565b60405180910390f35b60007f80ac58cd000000000000000000000000000000000000000000000000000000007bffffffffffffffffffffffffffffffffffffffffffffffffffffffff1916827bffffffffffffffffffffffffffffffffffffffffffffffffffffffff191614806106b857507f5b5e139f000000000000000000000000000000000000000000000000000000007bffffffffffffffffffffffffffffffffffffffffffffffffffffffff1916827bffffffffffffffffffffffffffffffffffffffffffffffffffffffff1916145b806106c857506106c78261148a565b5b9050919050565b6060600080546106de9061361a565b80601f016020809104026020016040519081016040528092919081815260200182805461070a9061361a565b80156107575780601f1061072c57610100808354040283529160200191610757565b820191906000526020600020905b81548152906001019060200180831161073a57829003601f168201915b5050505050905090565b600061076c826114f4565b6107ab576040517f08c379a00000000000000000000000000000000000000000000000000000000081526004016107a290613222565b60405180910390fd5b6004600083815260200190815260200160002060009054906101000a900473ffffffffffffffffffffffffffffffffffffffff169050919050565b60006107f182610ce2565b90508073ffffffffffffffffffffffffffffffffffffffff168373ffffffffffffffffffffffffffffffffffffffff161415610862576040517f08c379a0000000000000000000000000000000000000000000000000000000008152600401610859906132a2565b60405180910390fd5b8073ffffffffffffffffffffffffffffffffffffffff16610881611560565b73ffffffffffffffffffffffffffffffffffffffff1614806108b057506108af816108aa611560565b6112a2565b5b6108ef576040517f08c379a00000000000000000000000000000000000000000000000000000000081526004016108e690613162565b60405180910390fd5b6108f98383611568565b505050565b6060600b60008373ffffffffffffffffffffffffffffffffffffffff1673ffffffffffffffffffffffffffffffffffffffff168152602001908152602001600020805480602002602001604051908101604052809291908181526020016000905b82821015610a0b57838290600052602060002001805461097e9061361a565b80601f01602080910402602001604051908101604052809291908181526020018280546109aa9061361a565b80156109f75780601f106109cc576101008083540402835291602001916109f7565b820191906000526020600020905b8154815290600101906020018083116109da57829003601f168201915b50505050508152602001906001019061095f565b505050509050919050565b610a27610a21611560565b82611621565b610a66576040517f08c379a0000000000000000000000000000000000000000000000000000000008152600401610a5d906132c2565b60405180910390fd5b610a718383836116ff565b505050565b610a9183838360405180602001604052806000815250611108565b505050565b60006001600a84604051610aaa9190612f2f565b908152602001604051809103902060009054906101000a900460ff1660ff161415610b0a576040517f08c379a0000000000000000000000000000000000000000000000000000000008152600401610b01906132e2565b60405180910390fd5b600960009054906101000a900473ffffffffffffffffffffffffffffffffffffffff1673ffffffffffffffffffffffffffffffffffffffff166323b872dd3330856040518463ffffffff1660e01b8152600401610b6993929190612f85565b602060405180830381600087803b158015610b8357600080fd5b505af1158015610b97573d6000803e3d6000fd5b505050506040513d601f19601f82011682018060405250810190610bbb91906129de565b610bfa576040517f08c379a0000000000000000000000000000000000000000000000000000000008152600401610bf190613242565b60405180910390fd5b6000610c066008611966565b9050610c126008611974565b6001600a85604051610c249190612f2f565b908152602001604051809103902060006101000a81548160ff021916908360ff160217905550610c54858261198a565b610c5e8185611b64565b600b60008673ffffffffffffffffffffffffffffffffffffffff1673ffffffffffffffffffffffffffffffffffffffff16815260200190815260200160002084908060018154018082558091505060019003906000526020600020016000909190919091509080519060200190610cd6929190612487565b50809150509392505050565b6000806002600084815260200190815260200160002060009054906101000a900473ffffffffffffffffffffffffffffffffffffffff169050600073ffffffffffffffffffffffffffffffffffffffff168173ffffffffffffffffffffffffffffffffffffffff161415610d8b576040517f08c379a0000000000000000000000000000000000000000000000000000000008152600401610d82906131a2565b60405180910390fd5b80915050919050565b600b6020528160005260406000208181548110610db057600080fd5b90600052602060002001600091509150508054610dcc9061361a565b80601f0160208091040260200160405190810160405280929190818152602001828054610df89061361a565b8015610e455780601f10610e1a57610100808354040283529160200191610e45565b820191906000526020600020905b815481529060010190602001808311610e2857829003601f168201915b505050505081565b60008073ffffffffffffffffffffffffffffffffffffffff168273ffffffffffffffffffffffffffffffffffffffff161415610ebe576040517f08c379a0000000000000000000000000000000000000000000000000000000008152600401610eb590613182565b60405180910390fd5b600360008373ffffffffffffffffffffffffffffffffffffffff1673ffffffffffffffffffffffffffffffffffffffff168152602001908152602001600020549050919050565b610f0d611560565b73ffffffffffffffffffffffffffffffffffffffff16610f2b610f8d565b73ffffffffffffffffffffffffffffffffffffffff1614610f81576040517f08c379a0000000000000000000000000000000000000000000000000000000008152600401610f7890613262565b60405180910390fd5b610f8b6000611bd8565b565b6000600760009054906101000a900473ffffffffffffffffffffffffffffffffffffffff16905090565b606060018054610fc69061361a565b80601f0160208091040260200160405190810160405280929190818152602001828054610ff29061361a565b801561103f5780601f106110145761010080835404028352916020019161103f565b820191906000526020600020905b81548152906001019060200180831161102257829003601f168201915b5050505050905090565b60006001600a8360405161105d9190612f2f565b908152602001604051809103902060009054906101000a900460ff1660ff16149050919050565b61109661108f611560565b8383611c9e565b5050565b60005b8151811015611103576110f0838383815181106110e3577f4e487b7100000000000000000000000000000000000000000000000000000000600052603260045260246000fd5b602002602001015161117c565b80806110fb9061367d565b91505061109d565b505050565b611119611113611560565b83611621565b611158576040517f08c379a000000000000000000000000000000000000000000000000000000000815260040161114f906132c2565b60405180910390fd5b61116484848484611e0b565b50505050565b606061117582611e67565b9050919050565b611184611560565b73ffffffffffffffffffffffffffffffffffffffff166111a2610f8d565b73ffffffffffffffffffffffffffffffffffffffff16146111f8576040517f08c379a00000000000000000000000000000000000000000000000000000000081526004016111ef90613262565b60405180910390fd5b60006112046008611966565b90506112106008611974565b61121a8382611fb9565b6112248183611b64565b600b60008473ffffffffffffffffffffffffffffffffffffffff1673ffffffffffffffffffffffffffffffffffffffff1681526020019081526020016000208290806001815401808255809150506001900390600052602060002001600090919091909150908051906020019061129c929190612487565b50505050565b6000600560008473ffffffffffffffffffffffffffffffffffffffff1673ffffffffffffffffffffffffffffffffffffffff16815260200190815260200160002060008373ffffffffffffffffffffffffffffffffffffffff1673ffffffffffffffffffffffffffffffffffffffff16815260200190815260200160002060009054906101000a900460ff16905092915050565b600960009054906101000a900473ffffffffffffffffffffffffffffffffffffffff1681565b611364611560565b73ffffffffffffffffffffffffffffffffffffffff16611382610f8d565b73ffffffffffffffffffffffffffffffffffffffff16146113d8576040517f08c379a00000000000000000000000000000000000000000000000000000000081526004016113cf90613262565b60405180910390fd5b600073ffffffffffffffffffffffffffffffffffffffff168173ffffffffffffffffffffffffffffffffffffffff161415611448576040517f08c379a000000000000000000000000000000000000000000000000000000000815260040161143f906130a2565b60405180910390fd5b61145181611bd8565b50565b600a818051602081018201805184825260208301602085012081835280955050505050506000915054906101000a900460ff1681565b60007f01ffc9a7000000000000000000000000000000000000000000000000000000007bffffffffffffffffffffffffffffffffffffffffffffffffffffffff1916827bffffffffffffffffffffffffffffffffffffffffffffffffffffffff1916149050919050565b60008073ffffffffffffffffffffffffffffffffffffffff166002600084815260200190815260200160002060009054906101000a900473ffffffffffffffffffffffffffffffffffffffff1673ffffffffffffffffffffffffffffffffffffffff1614159050919050565b600033905090565b816004600083815260200190815260200160002060006101000a81548173ffffffffffffffffffffffffffffffffffffffff021916908373ffffffffffffffffffffffffffffffffffffffff160217905550808273ffffffffffffffffffffffffffffffffffffffff166115db83610ce2565b73ffffffffffffffffffffffffffffffffffffffff167f8c5be1e5ebec7d5bd14f71427d1e84f3dd0314c0f7b2291e5b200ac8c7c3b92560405160405180910390a45050565b600061162c826114f4565b61166b576040517f08c379a000000000000000000000000000000000000000000000000000000000815260040161166290613142565b60405180910390fd5b600061167683610ce2565b90508073ffffffffffffffffffffffffffffffffffffffff168473ffffffffffffffffffffffffffffffffffffffff1614806116e557508373ffffffffffffffffffffffffffffffffffffffff166116cd84610761565b73ffffffffffffffffffffffffffffffffffffffff16145b806116f657506116f581856112a2565b5b91505092915050565b8273ffffffffffffffffffffffffffffffffffffffff1661171f82610ce2565b73ffffffffffffffffffffffffffffffffffffffff1614611775576040517f08c379a000000000000000000000000000000000000000000000000000000000815260040161176c906130c2565b60405180910390fd5b600073ffffffffffffffffffffffffffffffffffffffff168273ffffffffffffffffffffffffffffffffffffffff1614156117e5576040517f08c379a00000000000000000000000000000000000000000000000000000000081526004016117dc90613102565b60405180910390fd5b6117f0838383611fd7565b6117fb600082611568565b6001600360008573ffffffffffffffffffffffffffffffffffffffff1673ffffffffffffffffffffffffffffffffffffffff168152602001908152602001600020600082825461184b91906134ff565b925050819055506001600360008473ffffffffffffffffffffffffffffffffffffffff1673ffffffffffffffffffffffffffffffffffffffff16815260200190815260200160002060008282546118a29190613478565b92505081905550816002600083815260200190815260200160002060006101000a81548173ffffffffffffffffffffffffffffffffffffffff021916908373ffffffffffffffffffffffffffffffffffffffff160217905550808273ffffffffffffffffffffffffffffffffffffffff168473ffffffffffffffffffffffffffffffffffffffff167fddf252ad1be2c89b69c2b068fc378daa952ba7f163c4a11628f55a4df523b3ef60405160405180910390a4611961838383611fdc565b505050565b600081600001549050919050565b6001816000016000828254019250508190555050565b600073ffffffffffffffffffffffffffffffffffffffff168273ffffffffffffffffffffffffffffffffffffffff1614156119fa576040517f08c379a00000000000000000000000000000000000000000000000000000000081526004016119f1906131e2565b60405180910390fd5b611a03816114f4565b15611a43576040517f08c379a0000000000000000000000000000000000000000000000000000000008152600401611a3a906130e2565b60405180910390fd5b611a4f60008383611fd7565b6001600360008473ffffffffffffffffffffffffffffffffffffffff1673ffffffffffffffffffffffffffffffffffffffff1681526020019081526020016000206000828254611a9f9190613478565b92505081905550816002600083815260200190815260200160002060006101000a81548173ffffffffffffffffffffffffffffffffffffffff021916908373ffffffffffffffffffffffffffffffffffffffff160217905550808273ffffffffffffffffffffffffffffffffffffffff16600073ffffffffffffffffffffffffffffffffffffffff167fddf252ad1be2c89b69c2b068fc378daa952ba7f163c4a11628f55a4df523b3ef60405160405180910390a4611b6060008383611fdc565b5050565b611b6d826114f4565b611bac576040517f08c379a0000000000000000000000000000000000000000000000000000000008152600401611ba3906131c2565b60405180910390fd5b80600660008481526020019081526020016000209080519060200190611bd3929190612487565b505050565b6000600760009054906101000a900473ffffffffffffffffffffffffffffffffffffffff16905081600760006101000a81548173ffffffffffffffffffffffffffffffffffffffff021916908373ffffffffffffffffffffffffffffffffffffffff1602179055508173ffffffffffffffffffffffffffffffffffffffff168173ffffffffffffffffffffffffffffffffffffffff167f8be0079c531659141344cd1fd0a4f28419497f9722a3daafe3b4186f6b6457e060405160405180910390a35050565b8173ffffffffffffffffffffffffffffffffffffffff168373ffffffffffffffffffffffffffffffffffffffff161415611d0d576040517f08c379a0000000000000000000000000000000000000000000000000000000008152600401611d0490613122565b60405180910390fd5b80600560008573ffffffffffffffffffffffffffffffffffffffff1673ffffffffffffffffffffffffffffffffffffffff16815260200190815260200160002060008473ffffffffffffffffffffffffffffffffffffffff1673ffffffffffffffffffffffffffffffffffffffff16815260200190815260200160002060006101000a81548160ff0219169083151502179055508173ffffffffffffffffffffffffffffffffffffffff168373ffffffffffffffffffffffffffffffffffffffff167f17307eab39ab6107e8899845ad3d59bd9653f200f220920489ca2b5937696c3183604051611dfe919061302a565b60405180910390a3505050565b611e168484846116ff565b611e2284848484611fe1565b611e61576040517f08c379a0000000000000000000000000000000000000000000000000000000008152600401611e5890613082565b60405180910390fd5b50505050565b6060611e72826114f4565b611eb1576040517f08c379a0000000000000000000000000000000000000000000000000000000008152600401611ea890613202565b60405180910390fd5b6000600660008481526020019081526020016000208054611ed19061361a565b80601f0160208091040260200160405190810160405280929190818152602001828054611efd9061361a565b8015611f4a5780601f10611f1f57610100808354040283529160200191611f4a565b820191906000526020600020905b815481529060010190602001808311611f2d57829003601f168201915b505050505090506000611f5b612178565b9050600081511415611f71578192505050611fb4565b600082511115611fa6578082604051602001611f8e929190612f46565b60405160208183030381529060405292505050611fb4565b611faf846121b5565b925050505b919050565b611fd382826040518060200160405280600081525061225c565b5050565b505050565b505050565b60006120028473ffffffffffffffffffffffffffffffffffffffff166122b7565b1561216b578373ffffffffffffffffffffffffffffffffffffffff1663150b7a0261202b611560565b8786866040518563ffffffff1660e01b815260040161204d9493929190612fbc565b602060405180830381600087803b15801561206757600080fd5b505af192505050801561209857506040513d601f19601f820116820180604052508101906120959190612a30565b60015b61211b573d80600081146120c8576040519150601f19603f3d011682016040523d82523d6000602084013e6120cd565b606091505b50600081511415612113576040517f08c379a000000000000000000000000000000000000000000000000000000000815260040161210a90613082565b60405180910390fd5b805181602001fd5b63150b7a0260e01b7bffffffffffffffffffffffffffffffffffffffffffffffffffffffff1916817bffffffffffffffffffffffffffffffffffffffffffffffffffffffff191614915050612170565b600190505b949350505050565b60606040518060400160405280600781526020017f697066733a2f2f00000000000000000000000000000000000000000000000000815250905090565b60606121c0826114f4565b6121ff576040517f08c379a00000000000000000000000000000000000000000000000000000000081526004016121f690613282565b60405180910390fd5b6000612209612178565b905060008151116122295760405180602001604052806000815250612254565b80612233846122da565b604051602001612244929190612f46565b6040516020818303038152906040525b915050919050565b612266838361198a565b6122736000848484611fe1565b6122b2576040517f08c379a00000000000000000000000000000000000000000000000000000000081526004016122a990613082565b60405180910390fd5b505050565b6000808273ffffffffffffffffffffffffffffffffffffffff163b119050919050565b60606000821415612322576040518060400160405280600181526020017f30000000000000000000000000000000000000000000000000000000000000008152509050612482565b600082905060005b6000821461235457808061233d9061367d565b915050600a8261234d91906134ce565b915061232a565b60008167ffffffffffffffff811115612396577f4e487b7100000000000000000000000000000000000000000000000000000000600052604160045260246000fd5b6040519080825280601f01601f1916602001820160405280156123c85781602001600182028036833780820191505090505b5090505b6000851461247b576001826123e191906134ff565b9150600a856123f091906136c6565b60306123fc9190613478565b60f81b818381518110612438577f4e487b7100000000000000000000000000000000000000000000000000000000600052603260045260246000fd5b60200101907effffffffffffffffffffffffffffffffffffffffffffffffffffffffffffff1916908160001a905350600a8561247491906134ce565b94506123cc565b8093505050505b919050565b8280546124939061361a565b90600052602060002090601f0160209004810192826124b557600085556124fc565b82601f106124ce57805160ff19168380011785556124fc565b828001600101855582156124fc579182015b828111156124fb5782518255916020019190600101906124e0565b5b509050612509919061250d565b5090565b5b8082111561252657600081600090555060010161250e565b5090565b600061253d6125388461335d565b613338565b9050808382526020820190508285602086028201111561255c57600080fd5b60005b858110156125a657813567ffffffffffffffff81111561257e57600080fd5b80860161258b89826126e9565b8552602085019450602084019350505060018101905061255f565b5050509392505050565b60006125c36125be84613389565b613338565b9050828152602081018484840111156125db57600080fd5b6125e68482856135d8565b509392505050565b60006126016125fc846133ba565b613338565b90508281526020810184848401111561261957600080fd5b6126248482856135d8565b509392505050565b60008135905061263b81613d0c565b92915050565b600082601f83011261265257600080fd5b813561266284826020860161252a565b91505092915050565b60008135905061267a81613d23565b92915050565b60008151905061268f81613d23565b92915050565b6000813590506126a481613d3a565b92915050565b6000815190506126b981613d3a565b92915050565b600082601f8301126126d057600080fd5b81356126e08482602086016125b0565b91505092915050565b600082601f8301126126fa57600080fd5b813561270a8482602086016125ee565b91505092915050565b60008135905061272281613d51565b92915050565b60006020828403121561273a57600080fd5b60006127488482850161262c565b91505092915050565b6000806040838503121561276457600080fd5b60006127728582860161262c565b92505060206127838582860161262c565b9150509250929050565b6000806000606084860312156127a257600080fd5b60006127b08682870161262c565b93505060206127c18682870161262c565b92505060406127d286828701612713565b9150509250925092565b600080600080608085870312156127f257600080fd5b60006128008782880161262c565b94505060206128118782880161262c565b935050604061282287828801612713565b925050606085013567ffffffffffffffff81111561283f57600080fd5b61284b878288016126bf565b91505092959194509250565b6000806040838503121561286a57600080fd5b60006128788582860161262c565b925050602083013567ffffffffffffffff81111561289557600080fd5b6128a185828601612641565b9150509250929050565b600080604083850312156128be57600080fd5b60006128cc8582860161262c565b92505060206128dd8582860161266b565b9150509250929050565b600080604083850312156128fa57600080fd5b60006129088582860161262c565b925050602083013567ffffffffffffffff81111561292557600080fd5b612931858286016126e9565b9150509250929050565b60008060006060848603121561295057600080fd5b600061295e8682870161262c565b935050602084013567ffffffffffffffff81111561297b57600080fd5b612987868287016126e9565b925050604061299886828701612713565b9150509250925092565b600080604083850312156129b557600080fd5b60006129c38582860161262c565b92505060206129d485828601612713565b9150509250929050565b6000602082840312156129f057600080fd5b60006129fe84828501612680565b91505092915050565b600060208284031215612a1957600080fd5b6000612a2784828501612695565b91505092915050565b600060208284031215612a4257600080fd5b6000612a50848285016126aa565b91505092915050565b600060208284031215612a6b57600080fd5b600082013567ffffffffffffffff811115612a8557600080fd5b612a91848285016126e9565b91505092915050565b600060208284031215612aac57600080fd5b6000612aba84828501612713565b91505092915050565b6000612acf8383612bb2565b905092915050565b612ae081613533565b82525050565b6000612af1826133fb565b612afb8185613429565b935083602082028501612b0d856133eb565b8060005b85811015612b495784840389528151612b2a8582612ac3565b9450612b358361341c565b925060208a01995050600181019050612b11565b50829750879550505050505092915050565b612b6481613545565b82525050565b6000612b7582613406565b612b7f818561343a565b9350612b8f8185602086016135e7565b612b98816137b3565b840191505092915050565b612bac816135b4565b82525050565b6000612bbd82613411565b612bc7818561344b565b9350612bd78185602086016135e7565b612be0816137b3565b840191505092915050565b6000612bf682613411565b612c00818561345c565b9350612c108185602086016135e7565b612c19816137b3565b840191505092915050565b6000612c2f82613411565b612c39818561346d565b9350612c498185602086016135e7565b80840191505092915050565b6000612c6260328361345c565b9150612c6d826137c4565b604082019050919050565b6000612c8560268361345c565b9150612c9082613813565b604082019050919050565b6000612ca860258361345c565b9150612cb382613862565b604082019050919050565b6000612ccb601c8361345c565b9150612cd6826138b1565b602082019050919050565b6000612cee60248361345c565b9150612cf9826138da565b604082019050919050565b6000612d1160198361345c565b9150612d1c82613929565b602082019050919050565b6000612d34602c8361345c565b9150612d3f82613952565b604082019050919050565b6000612d5760388361345c565b9150612d62826139a1565b604082019050919050565b6000612d7a602a8361345c565b9150612d85826139f0565b604082019050919050565b6000612d9d60298361345c565b9150612da882613a3f565b604082019050919050565b6000612dc0602e8361345c565b9150612dcb82613a8e565b604082019050919050565b6000612de360208361345c565b9150612dee82613add565b602082019050919050565b6000612e0660318361345c565b9150612e1182613b06565b604082019050919050565b6000612e29602c8361345c565b9150612e3482613b55565b604082019050919050565b6000612e4c60068361345c565b9150612e5782613ba4565b602082019050919050565b6000612e6f60208361345c565b9150612e7a82613bcd565b602082019050919050565b6000612e92602f8361345c565b9150612e9d82613bf6565b604082019050919050565b6000612eb560218361345c565b9150612ec082613c45565b604082019050919050565b6000612ed860318361345c565b9150612ee382613c94565b604082019050919050565b6000612efb60138361345c565b9150612f0682613ce3565b602082019050919050565b612f1a8161359d565b82525050565b612f29816135a7565b82525050565b6000612f3b8284612c24565b915081905092915050565b6000612f528285612c24565b9150612f5e8284612c24565b91508190509392505050565b6000602082019050612f7f6000830184612ad7565b92915050565b6000606082019050612f9a6000830186612ad7565b612fa76020830185612ad7565b612fb46040830184612f11565b949350505050565b6000608082019050612fd16000830187612ad7565b612fde6020830186612ad7565b612feb6040830185612f11565b8181036060830152612ffd8184612b6a565b905095945050505050565b600060208201905081810360008301526130228184612ae6565b905092915050565b600060208201905061303f6000830184612b5b565b92915050565b600060208201905061305a6000830184612ba3565b92915050565b6000602082019050818103600083015261307a8184612beb565b905092915050565b6000602082019050818103600083015261309b81612c55565b9050919050565b600060208201905081810360008301526130bb81612c78565b9050919050565b600060208201905081810360008301526130db81612c9b565b9050919050565b600060208201905081810360008301526130fb81612cbe565b9050919050565b6000602082019050818103600083015261311b81612ce1565b9050919050565b6000602082019050818103600083015261313b81612d04565b9050919050565b6000602082019050818103600083015261315b81612d27565b9050919050565b6000602082019050818103600083015261317b81612d4a565b9050919050565b6000602082019050818103600083015261319b81612d6d565b9050919050565b600060208201905081810360008301526131bb81612d90565b9050919050565b600060208201905081810360008301526131db81612db3565b9050919050565b600060208201905081810360008301526131fb81612dd6565b9050919050565b6000602082019050818103600083015261321b81612df9565b9050919050565b6000602082019050818103600083015261323b81612e1c565b9050919050565b6000602082019050818103600083015261325b81612e3f565b9050919050565b6000602082019050818103600083015261327b81612e62565b9050919050565b6000602082019050818103600083015261329b81612e85565b9050919050565b600060208201905081810360008301526132bb81612ea8565b9050919050565b600060208201905081810360008301526132db81612ecb565b9050919050565b600060208201905081810360008301526132fb81612eee565b9050919050565b60006020820190506133176000830184612f11565b92915050565b60006020820190506133326000830184612f20565b92915050565b6000613342613353565b905061334e828261364c565b919050565b6000604051905090565b600067ffffffffffffffff82111561337857613377613784565b5b602082029050602081019050919050565b600067ffffffffffffffff8211156133a4576133a3613784565b5b6133ad826137b3565b9050602081019050919050565b600067ffffffffffffffff8211156133d5576133d4613784565b5b6133de826137b3565b9050602081019050919050565b6000819050602082019050919050565b600081519050919050565b600081519050919050565b600081519050919050565b6000602082019050919050565b600082825260208201905092915050565b600082825260208201905092915050565b600082825260208201905092915050565b600082825260208201905092915050565b600081905092915050565b60006134838261359d565b915061348e8361359d565b9250827fffffffffffffffffffffffffffffffffffffffffffffffffffffffffffffffff038211156134c3576134c26136f7565b5b828201905092915050565b60006134d98261359d565b91506134e48361359d565b9250826134f4576134f3613726565b5b828204905092915050565b600061350a8261359d565b91506135158361359d565b925082821015613528576135276136f7565b5b828203905092915050565b600061353e8261357d565b9050919050565b60008115159050919050565b60007fffffffff0000000000000000000000000000000000000000000000000000000082169050919050565b600073ffffffffffffffffffffffffffffffffffffffff82169050919050565b6000819050919050565b600060ff82169050919050565b60006135bf826135c6565b9050919050565b60006135d18261357d565b9050919050565b82818337600083830152505050565b60005b838110156136055780820151818401526020810190506135ea565b83811115613614576000848401525b50505050565b6000600282049050600182168061363257607f821691505b6020821081141561364657613645613755565b5b50919050565b613655826137b3565b810181811067ffffffffffffffff8211171561367457613673613784565b5b80604052505050565b60006136888261359d565b91507fffffffffffffffffffffffffffffffffffffffffffffffffffffffffffffffff8214156136bb576136ba6136f7565b5b600182019050919050565b60006136d18261359d565b91506136dc8361359d565b9250826136ec576136eb613726565b5b828206905092915050565b7f4e487b7100000000000000000000000000000000000000000000000000000000600052601160045260246000fd5b7f4e487b7100000000000000000000000000000000000000000000000000000000600052601260045260246000fd5b7f4e487b7100000000000000000000000000000000000000000000000000000000600052602260045260246000fd5b7f4e487b7100000000000000000000000000000000000000000000000000000000600052604160045260246000fd5b6000601f19601f8301169050919050565b7f4552433732313a207472616e7366657220746f206e6f6e20455243373231526560008201527f63656976657220696d706c656d656e7465720000000000000000000000000000602082015250565b7f4f776e61626c653a206e6577206f776e657220697320746865207a65726f206160008201527f6464726573730000000000000000000000000000000000000000000000000000602082015250565b7f4552433732313a207472616e736665722066726f6d20696e636f72726563742060008201527f6f776e6572000000000000000000000000000000000000000000000000000000602082015250565b7f4552433732313a20746f6b656e20616c7265616479206d696e74656400000000600082015250565b7f4552433732313a207472616e7366657220746f20746865207a65726f2061646460008201527f7265737300000000000000000000000000000000000000000000000000000000602082015250565b7f4552433732313a20617070726f766520746f2063616c6c657200000000000000600082015250565b7f4552433732313a206f70657261746f7220717565727920666f72206e6f6e657860008201527f697374656e7420746f6b656e0000000000000000000000000000000000000000602082015250565b7f4552433732313a20617070726f76652063616c6c6572206973206e6f74206f7760008201527f6e6572206e6f7220617070726f76656420666f7220616c6c0000000000000000602082015250565b7f4552433732313a2062616c616e636520717565727920666f7220746865207a6560008201527f726f206164647265737300000000000000000000000000000000000000000000602082015250565b7f4552433732313a206f776e657220717565727920666f72206e6f6e657869737460008201527f656e7420746f6b656e0000000000000000000000000000000000000000000000602082015250565b7f45524337323155524953746f726167653a2055524920736574206f66206e6f6e60008201527f6578697374656e7420746f6b656e000000000000000000000000000000000000602082015250565b7f4552433732313a206d696e7420746f20746865207a65726f2061646472657373600082015250565b7f45524337323155524953746f726167653a2055524920717565727920666f722060008201527f6e6f6e6578697374656e7420746f6b656e000000000000000000000000000000602082015250565b7f4552433732313a20617070726f76656420717565727920666f72206e6f6e657860008201527f697374656e7420746f6b656e0000000000000000000000000000000000000000602082015250565b7f5061792055700000000000000000000000000000000000000000000000000000600082015250565b7f4f776e61626c653a2063616c6c6572206973206e6f7420746865206f776e6572600082015250565b7f4552433732314d657461646174613a2055524920717565727920666f72206e6f60008201527f6e6578697374656e7420746f6b656e0000000000000000000000000000000000602082015250565b7f4552433732313a20617070726f76616c20746f2063757272656e74206f776e6560008201527f7200000000000000000000000000000000000000000000000000000000000000602082015250565b7f4552433732313a207472616e736665722063616c6c6572206973206e6f74206f60008201527f776e6572206e6f7220617070726f766564000000000000000000000000000000602082015250565b7f4e465420616c7265616479206d696e7465642100000000000000000000000000600082015250565b613d1581613533565b8114613d2057600080fd5b50565b613d2c81613545565b8114613d3757600080fd5b50565b613d4381613551565b8114613d4e57600080fd5b50565b613d5a8161359d565b8114613d6557600080fd5b5056fea2646970667358221220be2bd004c40466e684a702c0a1ecc417b3eebed2b0cd8c62703166d655792cc764736f6c63430008040033",
  "linkReferences": {},
  "deployedLinkReferences": {}
}