{
  "_format": "hh-sol-artifact-1",
  "contractName": "MatchMaking",
  "sourceName": "contracts/MatchMaking.sol",
  "abi": [
    {
      "inputs": [
        {
          "internalType": "uint256",
          "name": "updateInterval",
          "type": "uint256"
        },
        {
          "internalType": "address",
          "name": "_clashTokenAddress",
          "type": "address"
        }
      ],
      "stateMutability": "nonpayable",
      "type": "constructor"
    },
    {
      "anonymous": false,
      "inputs": [
        {
          "indexed": true,
          "internalType": "uint256",
          "name": "matchId",
          "type": "uint256"
        },
        {
          "indexed": true,
          "internalType": "address",
          "name": "p1",
          "type": "address"
        },
        {
          "indexed": true,
          "internalType": "address",
          "name": "p2",
          "type": "address"
        },
        {
          "components": [
            {
              "components": [
                {
                  "internalType": "uint256",
                  "name": "hp",
                  "type": "uint256"
                },
                {
                  "internalType": "uint256",
                  "name": "maxHp",
                  "type": "uint256"
                },
                {
                  "internalType": "uint256",
                  "name": "atk",
                  "type": "uint256"
                },
                {
                  "internalType": "string",
                  "name": "url",
                  "type": "string"
                }
              ],
              "internalType": "struct Card",
              "name": "p1_card1",
              "type": "tuple"
            },
            {
              "components": [
                {
                  "internalType": "uint256",
                  "name": "hp",
                  "type": "uint256"
                },
                {
                  "internalType": "uint256",
                  "name": "maxHp",
                  "type": "uint256"
                },
                {
                  "internalType": "uint256",
                  "name": "atk",
                  "type": "uint256"
                },
                {
                  "internalType": "string",
                  "name": "url",
                  "type": "string"
                }
              ],
              "internalType": "struct Card",
              "name": "p1_card2",
              "type": "tuple"
            },
            {
              "internalType": "bool",
              "name": "p1_ready",
              "type": "bool"
            },
            {
              "components": [
                {
                  "internalType": "uint256",
                  "name": "hp",
                  "type": "uint256"
                },
                {
                  "internalType": "uint256",
                  "name": "maxHp",
                  "type": "uint256"
                },
                {
                  "internalType": "uint256",
                  "name": "atk",
                  "type": "uint256"
                },
                {
                  "internalType": "string",
                  "name": "url",
                  "type": "string"
                }
              ],
              "internalType": "struct Card",
              "name": "p2_card1",
              "type": "tuple"
            },
            {
              "components": [
                {
                  "internalType": "uint256",
                  "name": "hp",
                  "type": "uint256"
                },
                {
                  "internalType": "uint256",
                  "name": "maxHp",
                  "type": "uint256"
                },
                {
                  "internalType": "uint256",
                  "name": "atk",
                  "type": "uint256"
                },
                {
                  "internalType": "string",
                  "name": "url",
                  "type": "string"
                }
              ],
              "internalType": "struct Card",
              "name": "p2_card2",
              "type": "tuple"
            },
            {
              "internalType": "bool",
              "name": "p2_ready",
              "type": "bool"
            }
          ],
          "indexed": false,
          "internalType": "struct Round",
          "name": "round",
          "type": "tuple"
        }
      ],
      "name": "EndOfRound",
      "type": "event"
    },
    {
      "anonymous": false,
      "inputs": [
        {
          "indexed": true,
          "internalType": "address",
          "name": "opponent",
          "type": "address"
        },
        {
          "indexed": true,
          "internalType": "uint256",
          "name": "matchId",
          "type": "uint256"
        },
        {
          "components": [
            {
              "internalType": "uint256",
              "name": "hp",
              "type": "uint256"
            },
            {
              "internalType": "uint256",
              "name": "maxHp",
              "type": "uint256"
            },
            {
              "internalType": "uint256",
              "name": "atk",
              "type": "uint256"
            },
            {
              "internalType": "string",
              "name": "url",
              "type": "string"
            }
          ],
          "indexed": false,
          "internalType": "struct Card",
          "name": "card_1",
          "type": "tuple"
        },
        {
          "components": [
            {
              "internalType": "uint256",
              "name": "hp",
              "type": "uint256"
            },
            {
              "internalType": "uint256",
              "name": "maxHp",
              "type": "uint256"
            },
            {
              "internalType": "uint256",
              "name": "atk",
              "type": "uint256"
            },
            {
              "internalType": "string",
              "name": "url",
              "type": "string"
            }
          ],
          "indexed": false,
          "internalType": "struct Card",
          "name": "card_2",
          "type": "tuple"
        }
      ],
      "name": "OpponentCardSubmit",
      "type": "event"
    },
    {
      "anonymous": false,
      "inputs": [
        {
          "indexed": true,
          "internalType": "address",
          "name": "p1",
          "type": "address"
        },
        {
          "indexed": true,
          "internalType": "address",
          "name": "p2",
          "type": "address"
        },
        {
          "indexed": true,
          "internalType": "uint256",
          "name": "matchId",
          "type": "uint256"
        }
      ],
      "name": "PublishMatchId",
      "type": "event"
    },
    {
      "inputs": [
        {
          "internalType": "bytes",
          "name": "",
          "type": "bytes"
        }
      ],
      "name": "checkUpkeep",
      "outputs": [
        {
          "internalType": "bool",
          "name": "upkeepNeeded",
          "type": "bool"
        },
        {
          "internalType": "bytes",
          "name": "performData",
          "type": "bytes"
        }
      ],
      "stateMutability": "view",
      "type": "function"
    },
    {
      "inputs": [],
      "name": "clashToken",
      "outputs": [
        {
          "internalType": "contract IERC20",
          "name": "",
          "type": "address"
        }
      ],
      "stateMutability": "view",
      "type": "function"
    },
    {
      "inputs": [],
      "name": "counter",
      "outputs": [
        {
          "internalType": "uint256",
          "name": "",
          "type": "uint256"
        }
      ],
      "stateMutability": "view",
      "type": "function"
    },
    {
      "inputs": [
        {
          "internalType": "address",
          "name": "addr",
          "type": "address"
        },
        {
          "internalType": "uint256",
          "name": "stake",
          "type": "uint256"
        }
      ],
      "name": "getMatch",
      "outputs": [
        {
          "components": [
            {
              "internalType": "address",
              "name": "addr",
              "type": "address"
            },
            {
              "internalType": "uint256",
              "name": "stake",
              "type": "uint256"
            },
            {
              "internalType": "bool",
              "name": "active",
              "type": "bool"
            }
          ],
          "internalType": "struct Player",
          "name": "opponent",
          "type": "tuple"
        }
      ],
      "stateMutability": "nonpayable",
      "type": "function"
    },
    {
      "inputs": [],
      "name": "interval",
      "outputs": [
        {
          "internalType": "uint256",
          "name": "",
          "type": "uint256"
        }
      ],
      "stateMutability": "view",
      "type": "function"
    },
    {
      "inputs": [
        {
          "internalType": "address",
          "name": "addr",
          "type": "address"
        },
        {
          "internalType": "uint256",
          "name": "stake",
          "type": "uint256"
        }
      ],
      "name": "joinQueue",
      "outputs": [],
      "stateMutability": "nonpayable",
      "type": "function"
    },
    {
      "inputs": [],
      "name": "lastTimeStamp",
      "outputs": [
        {
          "internalType": "uint256",
          "name": "",
          "type": "uint256"
        }
      ],
      "stateMutability": "view",
      "type": "function"
    },
    {
      "inputs": [],
      "name": "pairOpponents",
      "outputs": [],
      "stateMutability": "nonpayable",
      "type": "function"
    },
    {
      "inputs": [
        {
          "internalType": "uint256",
          "name": "amount",
          "type": "uint256"
        }
      ],
      "name": "payWinner",
      "outputs": [],
      "stateMutability": "nonpayable",
      "type": "function"
    },
    {
      "inputs": [
        {
          "internalType": "bytes",
          "name": "",
          "type": "bytes"
        }
      ],
      "name": "performUpkeep",
      "outputs": [],
      "stateMutability": "nonpayable",
      "type": "function"
    },
    {
      "inputs": [
        {
          "internalType": "uint256",
          "name": "matchId",
          "type": "uint256"
        },
        {
          "internalType": "address",
          "name": "player",
          "type": "address"
        },
        {
          "internalType": "uint256",
          "name": "hp_card1",
          "type": "uint256"
        },
        {
          "internalType": "uint256",
          "name": "maxHp_card1",
          "type": "uint256"
        },
        {
          "internalType": "uint256",
          "name": "atk_card1",
          "type": "uint256"
        },
        {
          "internalType": "string",
          "name": "url_card1",
          "type": "string"
        },
        {
          "internalType": "uint256",
          "name": "hp_card2",
          "type": "uint256"
        },
        {
          "internalType": "uint256",
          "name": "maxHp_card2",
          "type": "uint256"
        },
        {
          "internalType": "uint256",
          "name": "atk_card2",
          "type": "uint256"
        },
        {
          "internalType": "string",
          "name": "url_card2",
          "type": "string"
        }
      ],
      "name": "submitCard",
      "outputs": [],
      "stateMutability": "nonpayable",
      "type": "function"
    }
  ],
  "bytecode": "0x60a06040523480156200001157600080fd5b5060405162002c4038038062002c408339818101604052810190620000379190620000c5565b816080818152505042600381905550600060028190555080600460006101000a81548173ffffffffffffffffffffffffffffffffffffffff021916908373ffffffffffffffffffffffffffffffffffffffff160217905550505062000178565b600081519050620000a88162000144565b92915050565b600081519050620000bf816200015e565b92915050565b60008060408385031215620000d957600080fd5b6000620000e985828601620000ae565b9250506020620000fc8582860162000097565b9150509250929050565b600062000113826200011a565b9050919050565b600073ffffffffffffffffffffffffffffffffffffffff82169050919050565b6000819050919050565b6200014f8162000106565b81146200015b57600080fd5b50565b62000169816200013a565b81146200017557600080fd5b50565b608051612a9e620001a260003960008181610209015281816106060152610b4e0152612a9e6000f3fe608060405234801561001057600080fd5b50600436106100a95760003560e01c80638f2e2069116100715780638f2e206914610167578063947a36fb14610171578063a5c0449f1461018f578063bb950ec4146101ab578063cb20d4cb146101c7578063ee821fc4146101e3576100a9565b80633f3b3b27146100ae5780634585e33b146100cc57806350ab3871146100e857806361bc221a146101185780636e04ff0d14610136575b600080fd5b6100b6610201565b6040516100c39190612597565b60405180910390f35b6100e660048036038101906100e19190611f72565b610207565b005b61010260048036038101906100fd9190611f0d565b610265565b60405161010f919061255a565b60405180910390f35b6101206105fa565b60405161012d9190612597565b60405180910390f35b610150600480360381019061014b9190611f72565b610600565b60405161015e929190612478565b60405180910390f35b61016f61063d565b005b610179610b4c565b6040516101869190612597565b60405180910390f35b6101a960048036038101906101a49190611fb7565b610b70565b005b6101c560048036038101906101c09190611f0d565b610c61565b005b6101e160048036038101906101dc9190611fe0565b610e2d565b005b6101eb6115ae565b6040516101f891906124a8565b60405180910390f35b60035481565b7f00000000000000000000000000000000000000000000000000000000000000006003544261023691906126d8565b1115610261574260038190555060016002546102529190612651565b60028190555061026061063d565b5b5050565b61026d6119a6565b600080600090506000600160008054905061028891906126d8565b90505b6000811061041357600081815481106102cd577f4e487b7100000000000000000000000000000000000000000000000000000000600052603260045260246000fd5b906000526020600020906003020160020160009054906101000a900460ff1680156103425750846000828154811061032e577f4e487b7100000000000000000000000000000000000000000000000000000000600052603260045260246000fd5b906000526020600020906003020160010154145b80156103e557508573ffffffffffffffffffffffffffffffffffffffff166000828154811061039a577f4e487b7100000000000000000000000000000000000000000000000000000000600052603260045260246000fd5b906000526020600020906003020160000160009054906101000a900473ffffffffffffffffffffffffffffffffffffffff1673ffffffffffffffffffffffffffffffffffffffff1614155b156103f257809250600191505b600081141561040057610413565b808061040b906127fb565b91505061028b565b5080610454576040517f08c379a000000000000000000000000000000000000000000000000000000000815260040161044b906124c3565b60405180910390fd5b600080838154811061048f577f4e487b7100000000000000000000000000000000000000000000000000000000600052603260045260246000fd5b906000526020600020906003020160020160006101000a81548160ff0219169083151502179055506000806104c3876115d4565b815481106104fa577f4e487b7100000000000000000000000000000000000000000000000000000000600052603260045260246000fd5b906000526020600020906003020160020160006101000a81548160ff0219169083151502179055506000828154811061055c577f4e487b7100000000000000000000000000000000000000000000000000000000600052603260045260246000fd5b90600052602060002090600302016040518060600160405290816000820160009054906101000a900473ffffffffffffffffffffffffffffffffffffffff1673ffffffffffffffffffffffffffffffffffffffff1673ffffffffffffffffffffffffffffffffffffffff168152602001600182015481526020016002820160009054906101000a900460ff1615151515815250509250505092915050565b60025481565b600060607f00000000000000000000000000000000000000000000000000000000000000006003544261063391906126d8565b1191509250929050565b60005b600080549050811015610b495760008181548110610687577f4e487b7100000000000000000000000000000000000000000000000000000000600052603260045260246000fd5b906000526020600020906003020160020160009054906101000a900460ff1680156106b757506001600080549050115b15610b365760008082815481106106f7577f4e487b7100000000000000000000000000000000000000000000000000000000600052603260045260246000fd5b90600052602060002090600302016040518060600160405290816000820160009054906101000a900473ffffffffffffffffffffffffffffffffffffffff1673ffffffffffffffffffffffffffffffffffffffff1673ffffffffffffffffffffffffffffffffffffffff168152602001600182015481526020016002820160009054906101000a900460ff161515151581525050905060006107a182600001518360200151610265565b905060006107ad6116c4565b90506000600160008381526020019081526020016000209050838160000160008201518160000160006101000a81548173ffffffffffffffffffffffffffffffffffffffff021916908373ffffffffffffffffffffffffffffffffffffffff1602179055506020820151816001015560408201518160020160006101000a81548160ff021916908315150217905550905050828160030160008201518160000160006101000a81548173ffffffffffffffffffffffffffffffffffffffff021916908373ffffffffffffffffffffffffffffffffffffffff1602179055506020820151816001015560408201518160020160006101000a81548160ff02191690831515021790555090505060088160070160006101000a81548160ff021916908360ff16021790555060088160070160016101000a81548160ff021916908360ff160217905550806001600084815260200190815260200160002060008201816000016000820160009054906101000a900473ffffffffffffffffffffffffffffffffffffffff168160000160006101000a81548173ffffffffffffffffffffffffffffffffffffffff021916908373ffffffffffffffffffffffffffffffffffffffff160217905550600182015481600101556002820160009054906101000a900460ff168160020160006101000a81548160ff021916908315150217905550505060038201816003016000820160009054906101000a900473ffffffffffffffffffffffffffffffffffffffff168160000160006101000a81548173ffffffffffffffffffffffffffffffffffffffff021916908373ffffffffffffffffffffffffffffffffffffffff160217905550600182015481600101556002820160009054906101000a900460ff168160020160006101000a81548160ff02191690831515021790555050506006820181600601908054610a6e9291906119df565b506007820160009054906101000a900460ff168160070160006101000a81548160ff021916908360ff1602179055506007820160019054906101000a900460ff168160070160016101000a81548160ff021916908360ff16021790555090505081836000015173ffffffffffffffffffffffffffffffffffffffff16856000015173ffffffffffffffffffffffffffffffffffffffff167fc66aa8485d8a2d56027221fd56d205277100c891691b158d82a6082e0edeb5d960405160405180910390a4505050505b8080610b4190612888565b915050610640565b50565b7f000000000000000000000000000000000000000000000000000000000000000081565b600460009054906101000a900473ffffffffffffffffffffffffffffffffffffffff1673ffffffffffffffffffffffffffffffffffffffff1663a9059cbb33836040518363ffffffff1660e01b8152600401610bcd92919061244f565b602060405180830381600087803b158015610be757600080fd5b505af1158015610bfb573d6000803e3d6000fd5b505050506040513d601f19601f82011682018060405250810190610c1f9190611f49565b610c5e576040517f08c379a0000000000000000000000000000000000000000000000000000000008152600401610c5590612503565b60405180910390fd5b50565b600460009054906101000a900473ffffffffffffffffffffffffffffffffffffffff1673ffffffffffffffffffffffffffffffffffffffff166323b872dd3330846040518463ffffffff1660e01b8152600401610cc093929190612418565b602060405180830381600087803b158015610cda57600080fd5b505af1158015610cee573d6000803e3d6000fd5b505050506040513d601f19601f82011682018060405250810190610d129190611f49565b610d51576040517f08c379a0000000000000000000000000000000000000000000000000000000008152600401610d48906124e3565b60405180910390fd5b600060405180606001604052808473ffffffffffffffffffffffffffffffffffffffff168152602001838152602001600115158152509050600081908060018154018082558091505060019003906000526020600020906003020160009091909190915060008201518160000160006101000a81548173ffffffffffffffffffffffffffffffffffffffff021916908373ffffffffffffffffffffffffffffffffffffffff1602179055506020820151816001015560408201518160020160006101000a81548160ff0219169083151502179055505050505050565b6000600160008c81526020019081526020016000209050600081600601805490509050600080821415610ecc57826006016001816001815401808255809150500390600052602060002090505082600601600081548110610eb7577f4e487b7100000000000000000000000000000000000000000000000000000000600052603260045260246000fd5b90600052602060002090601202019050610fce565b600083600601600184610edf91906126d8565b81548110610f16577f4e487b7100000000000000000000000000000000000000000000000000000000600052603260045260246000fd5b906000526020600020906012020190508060080160009054906101000a900460ff168015610f5257508060110160009054906101000a900460ff165b15610fc8578360060160018160018154018082558091505003906000526020600020905050836006018381548110610fb3577f4e487b7100000000000000000000000000000000000000000000000000000000600052603260045260246000fd5b90600052602060002090601202019150610fcc565b8091505b505b600060405180608001604052808d81526020018c81526020018b81526020018a8152509050600060405180608001604052808a81526020018981526020018881526020018781525090508d73ffffffffffffffffffffffffffffffffffffffff168560000160000160009054906101000a900473ffffffffffffffffffffffffffffffffffffffff1673ffffffffffffffffffffffffffffffffffffffff16141561111b57818360000160008201518160000155602082015181600101556040820151816002015560608201518160030190805190602001906110b2929190611bb1565b50905050808360040160008201518160000155602082015181600101556040820151816002015560608201518160030190805190602001906110f5929190611bb1565b5090505060018360080160006101000a81548160ff0219169083151502179055506111bf565b8183600901600082015181600001556020820151816001015560408201518160020155606082015181600301908051906020019061115a929190611bb1565b509050508083600d01600082015181600001556020820151816001015560408201518160020155606082015181600301908051906020019061119d929190611bb1565b5090505060018360110160006101000a81548160ff0219169083151502179055505b8e8e73ffffffffffffffffffffffffffffffffffffffff167f83f6b09e4b78d3c7fa9a5f649a3a5bc51599c18848c59172c96a0434080a957b8484604051611208929190612523565b60405180910390a38260080160009054906101000a900460ff16801561123c57508260110160009054906101000a900460ff165b1561159d5761159c8f846040518060c00160405290816000820160405180608001604052908160008201548152602001600182015481526020016002820154815260200160038201805461128f90612825565b80601f01602080910402602001604051908101604052809291908181526020018280546112bb90612825565b80156113085780601f106112dd57610100808354040283529160200191611308565b820191906000526020600020905b8154815290600101906020018083116112eb57829003601f168201915b50505050508152505081526020016004820160405180608001604052908160008201548152602001600182015481526020016002820154815260200160038201805461135390612825565b80601f016020809104026020016040519081016040528092919081815260200182805461137f90612825565b80156113cc5780601f106113a1576101008083540402835291602001916113cc565b820191906000526020600020905b8154815290600101906020018083116113af57829003601f168201915b50505050508152505081526020016008820160009054906101000a900460ff161515151581526020016009820160405180608001604052908160008201548152602001600182015481526020016002820154815260200160038201805461143290612825565b80601f016020809104026020016040519081016040528092919081815260200182805461145e90612825565b80156114ab5780601f10611480576101008083540402835291602001916114ab565b820191906000526020600020905b81548152906001019060200180831161148e57829003601f168201915b5050505050815250508152602001600d82016040518060800160405290816000820154815260200160018201548152602001600282015481526020016003820180546114f690612825565b80601f016020809104026020016040519081016040528092919081815260200182805461152290612825565b801561156f5780601f106115445761010080835404028352916020019161156f565b820191906000526020600020905b81548152906001019060200180831161155257829003601f168201915b50505050508152505081526020016011820160009054906101000a900460ff1615151515815250506116f7565b5b505050505050505050505050505050565b600460009054906101000a900473ffffffffffffffffffffffffffffffffffffffff1681565b60008060016000805490506115e991906126d8565b90505b600081106116bd578273ffffffffffffffffffffffffffffffffffffffff1660008281548110611645577f4e487b7100000000000000000000000000000000000000000000000000000000600052603260045260246000fd5b906000526020600020906003020160000160009054906101000a900473ffffffffffffffffffffffffffffffffffffffff1673ffffffffffffffffffffffffffffffffffffffff16141561169c57809150506116bf565b60008114156116aa576116bd565b80806116b5906127fb565b9150506115ec565b505b919050565b600044426040516020016116d99291906123ec565b6040516020818303038152906040528051906020012060001c905090565b60008160200151604001518260000151604001516117159190612651565b905060008260200151600001518360000151600001516117359190612651565b905060008360800151604001518460600151604001516117559190612651565b905060008460800151600001518560600151600001516117759190612651565b9050600080848411156117d657600091506002600160008a815260200190815260200160002060070160008282829054906101000a900460ff166117b9919061270c565b92506101000a81548160ff021916908360ff1602179055506117e5565b83856117e291906126d8565b91505b8286111561184157600090506002600160008a815260200190815260200160002060070160018282829054906101000a900460ff16611824919061270c565b92506101000a81548160ff021916908360ff160217905550611850565b858361184d91906126d8565b90505b60028261185d91906126a7565b8760000151600001818152505060028261187791906126a7565b8760200151600001818152505060028161189191906126a7565b876060015160000181815250506002816118ab91906126a7565b876080015160000181815250506000600160008a815260200190815260200160002060000160000160009054906101000a900473ffffffffffffffffffffffffffffffffffffffff1690506000600160008b815260200190815260200160002060030160000160009054906101000a900473ffffffffffffffffffffffffffffffffffffffff1690508073ffffffffffffffffffffffffffffffffffffffff168273ffffffffffffffffffffffffffffffffffffffff168b7f8b2337f139580f88043647652f2305f0e09c12f89e1298fffe1009cc903d1b408c6040516119929190612575565b60405180910390a450505050505050505050565b6040518060600160405280600073ffffffffffffffffffffffffffffffffffffffff168152602001600081526020016000151581525090565b828054828255906000526020600020906012028101928215611ba05760005260206000209160120282015b82811115611b9f57828260008201816000016000820154816000015560018201548160010155600282015481600201556003820181600301908054611a4e90612825565b611a59929190611c37565b50505060048201816004016000820154816000015560018201548160010155600282015481600201556003820181600301908054611a9690612825565b611aa1929190611c37565b5050506008820160009054906101000a900460ff168160080160006101000a81548160ff02191690831515021790555060098201816009016000820154816000015560018201548160010155600282015481600201556003820181600301908054611b0b90612825565b611b16929190611c37565b505050600d820181600d016000820154816000015560018201548160010155600282015481600201556003820181600301908054611b5390612825565b611b5e929190611c37565b5050506011820160009054906101000a900460ff168160110160006101000a81548160ff021916908315150217905550505091601201919060120190611a0a565b5b509050611bad9190611cc4565b5090565b828054611bbd90612825565b90600052602060002090601f016020900481019282611bdf5760008555611c26565b82601f10611bf857805160ff1916838001178555611c26565b82800160010185558215611c26579182015b82811115611c25578251825591602001919060010190611c0a565b5b509050611c339190611dbf565b5090565b828054611c4390612825565b90600052602060002090601f016020900481019282611c655760008555611cb3565b82601f10611c765780548555611cb3565b82800160010185558215611cb357600052602060002091601f016020900482015b82811115611cb2578254825591600101919060010190611c97565b5b509050611cc09190611dbf565b5090565b5b80821115611dbb57600080820160008082016000905560018201600090556002820160009055600382016000611cfb9190611ddc565b50506004820160008082016000905560018201600090556002820160009055600382016000611d2a9190611ddc565b50506008820160006101000a81549060ff02191690556009820160008082016000905560018201600090556002820160009055600382016000611d6d9190611ddc565b5050600d820160008082016000905560018201600090556002820160009055600382016000611d9c9190611ddc565b50506011820160006101000a81549060ff021916905550601201611cc5565b5090565b5b80821115611dd8576000816000905550600101611dc0565b5090565b508054611de890612825565b6000825580601f10611dfa5750611e19565b601f016020900490600052602060002090810190611e189190611dbf565b5b50565b6000611e2f611e2a846125d7565b6125b2565b905082815260208101848484011115611e4757600080fd5b611e528482856127b9565b509392505050565b600081359050611e6981612a23565b92915050565b600081519050611e7e81612a3a565b92915050565b60008083601f840112611e9657600080fd5b8235905067ffffffffffffffff811115611eaf57600080fd5b602083019150836001820283011115611ec757600080fd5b9250929050565b600082601f830112611edf57600080fd5b8135611eef848260208601611e1c565b91505092915050565b600081359050611f0781612a51565b92915050565b60008060408385031215611f2057600080fd5b6000611f2e85828601611e5a565b9250506020611f3f85828601611ef8565b9150509250929050565b600060208284031215611f5b57600080fd5b6000611f6984828501611e6f565b91505092915050565b60008060208385031215611f8557600080fd5b600083013567ffffffffffffffff811115611f9f57600080fd5b611fab85828601611e84565b92509250509250929050565b600060208284031215611fc957600080fd5b6000611fd784828501611ef8565b91505092915050565b6000806000806000806000806000806101408b8d03121561200057600080fd5b600061200e8d828e01611ef8565b9a5050602061201f8d828e01611e5a565b99505060406120308d828e01611ef8565b98505060606120418d828e01611ef8565b97505060806120528d828e01611ef8565b96505060a08b013567ffffffffffffffff81111561206f57600080fd5b61207b8d828e01611ece565b95505060c061208c8d828e01611ef8565b94505060e061209d8d828e01611ef8565b9350506101006120af8d828e01611ef8565b9250506101208b013567ffffffffffffffff8111156120cd57600080fd5b6120d98d828e01611ece565b9150509295989b9194979a5092959850565b6120f481612740565b82525050565b61210381612740565b82525050565b61211281612752565b82525050565b61212181612752565b82525050565b600061213282612608565b61213c818561261e565b935061214c8185602086016127c8565b61215581612997565b840191505092915050565b61216981612795565b82525050565b600061217a82612613565b612184818561262f565b93506121948185602086016127c8565b61219d81612997565b840191505092915050565b60006121b5601883612640565b91506121c0826129a8565b602082019050919050565b60006121d8600683612640565b91506121e3826129d1565b602082019050919050565b60006121fb601483612640565b9150612206826129fa565b602082019050919050565b600060808301600083015161222960008601826123b7565b50602083015161223c60208601826123b7565b50604083015161224f60408601826123b7565b5060608301518482036060860152612267828261216f565b9150508091505092915050565b600060808301600083015161228c60008601826123b7565b50602083015161229f60208601826123b7565b5060408301516122b260408601826123b7565b50606083015184820360608601526122ca828261216f565b9150508091505092915050565b6060820160008201516122ed60008501826120eb565b50602082015161230060208501826123b7565b5060408201516123136040850182612109565b50505050565b600060c08301600083015184820360008601526123368282612211565b915050602083015184820360208601526123508282612211565b91505060408301516123656040860182612109565b506060830151848203606086015261237d8282612211565b915050608083015184820360808601526123978282612211565b91505060a08301516123ac60a0860182612109565b508091505092915050565b6123c08161277e565b82525050565b6123cf8161277e565b82525050565b6123e66123e18261277e565b6128d1565b82525050565b60006123f882856123d5565b60208201915061240882846123d5565b6020820191508190509392505050565b600060608201905061242d60008301866120fa565b61243a60208301856120fa565b61244760408301846123c6565b949350505050565b600060408201905061246460008301856120fa565b61247160208301846123c6565b9392505050565b600060408201905061248d6000830185612118565b818103602083015261249f8184612127565b90509392505050565b60006020820190506124bd6000830184612160565b92915050565b600060208201905081810360008301526124dc816121a8565b9050919050565b600060208201905081810360008301526124fc816121cb565b9050919050565b6000602082019050818103600083015261251c816121ee565b9050919050565b6000604082019050818103600083015261253d8185612274565b905081810360208301526125518184612274565b90509392505050565b600060608201905061256f60008301846122d7565b92915050565b6000602082019050818103600083015261258f8184612319565b905092915050565b60006020820190506125ac60008301846123c6565b92915050565b60006125bc6125cd565b90506125c88282612857565b919050565b6000604051905090565b600067ffffffffffffffff8211156125f2576125f1612968565b5b6125fb82612997565b9050602081019050919050565b600081519050919050565b600081519050919050565b600082825260208201905092915050565b600082825260208201905092915050565b600082825260208201905092915050565b600061265c8261277e565b91506126678361277e565b9250827fffffffffffffffffffffffffffffffffffffffffffffffffffffffffffffffff0382111561269c5761269b6128db565b5b828201905092915050565b60006126b28261277e565b91506126bd8361277e565b9250826126cd576126cc61290a565b5b828204905092915050565b60006126e38261277e565b91506126ee8361277e565b925082821015612701576127006128db565b5b828203905092915050565b600061271782612788565b915061272283612788565b925082821015612735576127346128db565b5b828203905092915050565b600061274b8261275e565b9050919050565b60008115159050919050565b600073ffffffffffffffffffffffffffffffffffffffff82169050919050565b6000819050919050565b600060ff82169050919050565b60006127a0826127a7565b9050919050565b60006127b28261275e565b9050919050565b82818337600083830152505050565b60005b838110156127e65780820151818401526020810190506127cb565b838111156127f5576000848401525b50505050565b60006128068261277e565b9150600082141561281a576128196128db565b5b600182039050919050565b6000600282049050600182168061283d57607f821691505b6020821081141561285157612850612939565b5b50919050565b61286082612997565b810181811067ffffffffffffffff8211171561287f5761287e612968565b5b80604052505050565b60006128938261277e565b91507fffffffffffffffffffffffffffffffffffffffffffffffffffffffffffffffff8214156128c6576128c56128db565b5b600182019050919050565b6000819050919050565b7f4e487b7100000000000000000000000000000000000000000000000000000000600052601160045260246000fd5b7f4e487b7100000000000000000000000000000000000000000000000000000000600052601260045260246000fd5b7f4e487b7100000000000000000000000000000000000000000000000000000000600052602260045260246000fd5b7f4e487b7100000000000000000000000000000000000000000000000000000000600052604160045260246000fd5b6000601f19601f8301169050919050565b7f43616e6e6f742066696e6420616e206f70706f6e656e742e0000000000000000600082015250565b7f5061792055700000000000000000000000000000000000000000000000000000600082015250565b7f436f756c64206e6f74207061792077696e6e6572000000000000000000000000600082015250565b612a2c81612740565b8114612a3757600080fd5b50565b612a4381612752565b8114612a4e57600080fd5b50565b612a5a8161277e565b8114612a6557600080fd5b5056fea2646970667358221220f090ab5740ea2c67f5f36786c4393889b14dcc1885d6295d11d041abf6e2662e64736f6c63430008040033",
  "linkReferences": {},
  "deployedLinkReferences": {}
}