{
  "_format": "hh-sol-artifact-1",
  "contractName": "ClashOfCards",
  "sourceName": "contracts/ClashNFT.sol",
  "abi": [
    {
      "inputs": [
        {
          "internalType": "address",
          "name": "_clashTokenAddress",
          "type": "address"
        }
      ],
      "stateMutability": "nonpayable",
      "type": "constructor"
    },
    {
      "anonymous": false,
      "inputs": [
        {
          "indexed": true,
          "internalType": "address",
          "name": "owner",
          "type": "address"
        },
        {
          "indexed": true,
          "internalType": "address",
          "name": "approved",
          "type": "address"
        },
        {
          "indexed": true,
          "internalType": "uint256",
          "name": "tokenId",
          "type": "uint256"
        }
      ],
      "name": "Approval",
      "type": "event"
    },
    {
      "anonymous": false,
      "inputs": [
        {
          "indexed": true,
          "internalType": "address",
          "name": "owner",
          "type": "address"
        },
        {
          "indexed": true,
          "internalType": "address",
          "name": "operator",
          "type": "address"
        },
        {
          "indexed": false,
          "internalType": "bool",
          "name": "approved",
          "type": "bool"
        }
      ],
      "name": "ApprovalForAll",
      "type": "event"
    },
    {
      "anonymous": false,
      "inputs": [
        {
          "indexed": true,
          "internalType": "address",
          "name": "previousOwner",
          "type": "address"
        },
        {
          "indexed": true,
          "internalType": "address",
          "name": "newOwner",
          "type": "address"
        }
      ],
      "name": "OwnershipTransferred",
      "type": "event"
    },
    {
      "anonymous": false,
      "inputs": [
        {
          "indexed": true,
          "internalType": "address",
          "name": "from",
          "type": "address"
        },
        {
          "indexed": true,
          "internalType": "address",
          "name": "to",
          "type": "address"
        },
        {
          "indexed": true,
          "internalType": "uint256",
          "name": "tokenId",
          "type": "uint256"
        }
      ],
      "name": "Transfer",
      "type": "event"
    },
    {
      "inputs": [
        {
          "internalType": "address",
          "name": "to",
          "type": "address"
        },
        {
          "internalType": "uint256",
          "name": "tokenId",
          "type": "uint256"
        }
      ],
      "name": "approve",
      "outputs": [],
      "stateMutability": "nonpayable",
      "type": "function"
    },
    {
      "inputs": [
        {
          "internalType": "address",
          "name": "owner",
          "type": "address"
        }
      ],
      "name": "balanceOf",
      "outputs": [
        {
          "internalType": "uint256",
          "name": "",
          "type": "uint256"
        }
      ],
      "stateMutability": "view",
      "type": "function"
    },
    {
      "inputs": [],
      "name": "clashToken",
      "outputs": [
        {
          "internalType": "contract IERC20",
          "name": "",
          "type": "address"
        }
      ],
      "stateMutability": "view",
      "type": "function"
    },
    {
      "inputs": [
        {
          "internalType": "address",
          "name": "user",
          "type": "address"
        }
      ],
      "name": "getAllNFTs",
      "outputs": [
        {
          "internalType": "string[]",
          "name": "",
          "type": "string[]"
        }
      ],
      "stateMutability": "view",
      "type": "function"
    },
    {
      "inputs": [
        {
          "internalType": "uint256",
          "name": "tokenId",
          "type": "uint256"
        }
      ],
      "name": "getApproved",
      "outputs": [
        {
          "internalType": "address",
          "name": "",
          "type": "address"
        }
      ],
      "stateMutability": "view",
      "type": "function"
    },
    {
      "inputs": [
        {
          "internalType": "address",
          "name": "owner",
          "type": "address"
        },
        {
          "internalType": "address",
          "name": "operator",
          "type": "address"
        }
      ],
      "name": "isApprovedForAll",
      "outputs": [
        {
          "internalType": "bool",
          "name": "",
          "type": "bool"
        }
      ],
      "stateMutability": "view",
      "type": "function"
    },
    {
      "inputs": [
        {
          "internalType": "string",
          "name": "uri",
          "type": "string"
        }
      ],
      "name": "isContentOwned",
      "outputs": [
        {
          "internalType": "bool",
          "name": "",
          "type": "bool"
        }
      ],
      "stateMutability": "view",
      "type": "function"
    },
    {
      "inputs": [],
      "name": "name",
      "outputs": [
        {
          "internalType": "string",
          "name": "",
          "type": "string"
        }
      ],
      "stateMutability": "view",
      "type": "function"
    },
    {
      "inputs": [],
      "name": "owner",
      "outputs": [
        {
          "internalType": "address",
          "name": "",
          "type": "address"
        }
      ],
      "stateMutability": "view",
      "type": "function"
    },
    {
      "inputs": [
        {
          "internalType": "uint256",
          "name": "tokenId",
          "type": "uint256"
        }
      ],
      "name": "ownerOf",
      "outputs": [
        {
          "internalType": "address",
          "name": "",
          "type": "address"
        }
      ],
      "stateMutability": "view",
      "type": "function"
    },
    {
      "inputs": [
        {
          "internalType": "address",
          "name": "recipient",
          "type": "address"
        },
        {
          "internalType": "string",
          "name": "pinataURI",
          "type": "string"
        },
        {
          "internalType": "uint256",
          "name": "amount",
          "type": "uint256"
        }
      ],
      "name": "payToMint",
      "outputs": [
        {
          "internalType": "uint256",
          "name": "",
          "type": "uint256"
        }
      ],
      "stateMutability": "payable",
      "type": "function"
    },
    {
      "inputs": [],
      "name": "renounceOwnership",
      "outputs": [],
      "stateMutability": "nonpayable",
      "type": "function"
    },
    {
      "inputs": [
        {
          "internalType": "address",
          "name": "to",
          "type": "address"
        },
        {
          "internalType": "uint256",
          "name": "tokenId",
          "type": "uint256"
        },
        {
          "internalType": "string",
          "name": "uri",
          "type": "string"
        }
      ],
      "name": "safeMint",
      "outputs": [],
      "stateMutability": "nonpayable",
      "type": "function"
    },
    {
      "inputs": [
        {
          "internalType": "address",
          "name": "from",
          "type": "address"
        },
        {
          "internalType": "address",
          "name": "to",
          "type": "address"
        },
        {
          "internalType": "uint256",
          "name": "tokenId",
          "type": "uint256"
        }
      ],
      "name": "safeTransferFrom",
      "outputs": [],
      "stateMutability": "nonpayable",
      "type": "function"
    },
    {
      "inputs": [
        {
          "internalType": "address",
          "name": "from",
          "type": "address"
        },
        {
          "internalType": "address",
          "name": "to",
          "type": "address"
        },
        {
          "internalType": "uint256",
          "name": "tokenId",
          "type": "uint256"
        },
        {
          "internalType": "bytes",
          "name": "_data",
          "type": "bytes"
        }
      ],
      "name": "safeTransferFrom",
      "outputs": [],
      "stateMutability": "nonpayable",
      "type": "function"
    },
    {
      "inputs": [
        {
          "internalType": "address",
          "name": "operator",
          "type": "address"
        },
        {
          "internalType": "bool",
          "name": "approved",
          "type": "bool"
        }
      ],
      "name": "setApprovalForAll",
      "outputs": [],
      "stateMutability": "nonpayable",
      "type": "function"
    },
    {
      "inputs": [
        {
          "internalType": "bytes4",
          "name": "interfaceId",
          "type": "bytes4"
        }
      ],
      "name": "supportsInterface",
      "outputs": [
        {
          "internalType": "bool",
          "name": "",
          "type": "bool"
        }
      ],
      "stateMutability": "view",
      "type": "function"
    },
    {
      "inputs": [],
      "name": "symbol",
      "outputs": [
        {
          "internalType": "string",
          "name": "",
          "type": "string"
        }
      ],
      "stateMutability": "view",
      "type": "function"
    },
    {
      "inputs": [
        {
          "internalType": "uint256",
          "name": "tokenId",
          "type": "uint256"
        }
      ],
      "name": "tokenURI",
      "outputs": [
        {
          "internalType": "string",
          "name": "",
          "type": "string"
        }
      ],
      "stateMutability": "view",
      "type": "function"
    },
    {
      "inputs": [
        {
          "internalType": "address",
          "name": "from",
          "type": "address"
        },
        {
          "internalType": "address",
          "name": "to",
          "type": "address"
        },
        {
          "internalType": "uint256",
          "name": "tokenId",
          "type": "uint256"
        }
      ],
      "name": "transferFrom",
      "outputs": [],
      "stateMutability": "nonpayable",
      "type": "function"
    },
    {
      "inputs": [
        {
          "internalType": "address",
          "name": "newOwner",
          "type": "address"
        }
      ],
      "name": "transferOwnership",
      "outputs": [],
      "stateMutability": "nonpayable",
      "type": "function"
    }
  ],
  "bytecode": "0x60806040523480156200001157600080fd5b5060405162003d3238038062003d328339818101604052810190620000379190620002d4565b6040518060400160405280600c81526020017f436c6173684f66436172647300000000000000000000000000000000000000008152506040518060400160405280600581526020017f434c4153480000000000000000000000000000000000000000000000000000008152508160009080519060200190620000bb9291906200020d565b508060019080519060200190620000d49291906200020d565b505050620000f7620000eb6200013f60201b60201c565b6200014760201b60201c565b80600960006101000a81548173ffffffffffffffffffffffffffffffffffffffff021916908373ffffffffffffffffffffffffffffffffffffffff16021790555050620003b3565b600033905090565b6000600760009054906101000a900473ffffffffffffffffffffffffffffffffffffffff16905081600760006101000a81548173ffffffffffffffffffffffffffffffffffffffff021916908373ffffffffffffffffffffffffffffffffffffffff1602179055508173ffffffffffffffffffffffffffffffffffffffff168173ffffffffffffffffffffffffffffffffffffffff167f8be0079c531659141344cd1fd0a4f28419497f9722a3daafe3b4186f6b6457e060405160405180910390a35050565b8280546200021b9062000334565b90600052602060002090601f0160209004810192826200023f57600085556200028b565b82601f106200025a57805160ff19168380011785556200028b565b828001600101855582156200028b579182015b828111156200028a5782518255916020019190600101906200026d565b5b5090506200029a91906200029e565b5090565b5b80821115620002b95760008160009055506001016200029f565b5090565b600081519050620002ce8162000399565b92915050565b600060208284031215620002e757600080fd5b6000620002f784828501620002bd565b91505092915050565b60006200030d8262000314565b9050919050565b600073ffffffffffffffffffffffffffffffffffffffff82169050919050565b600060028204905060018216806200034d57607f821691505b602082108114156200036457620003636200036a565b5b50919050565b7f4e487b7100000000000000000000000000000000000000000000000000000000600052602260045260246000fd5b620003a48162000300565b8114620003b057600080fd5b50565b61396f80620003c36000396000f3fe60806040526004361061012a5760003560e01c8063715018a6116100ab578063b88d4fde1161006f578063b88d4fde14610409578063c87b56dd14610432578063cd279c7c1461046f578063e985e9c514610498578063ee821fc4146104d5578063f2fde38b146105005761012a565b8063715018a6146103365780638da5cb5b1461034d57806395d89b41146103785780639f1cabc6146103a3578063a22cb465146103e05761012a565b806323b872dd116100f257806323b872dd1461023a57806342842e0e1461026357806351e74c2a1461028c5780636352211e146102bc57806370a08231146102f95761012a565b806301ffc9a71461012f57806306fdde031461016c578063081812fc14610197578063095ea7b3146101d457806310a350a7146101fd575b600080fd5b34801561013b57600080fd5b50610156600480360381019061015191906126a7565b610529565b6040516101639190612c98565b60405180910390f35b34801561017857600080fd5b5061018161060b565b60405161018e9190612cce565b60405180910390f35b3480156101a357600080fd5b506101be60048036038101906101b9919061273a565b61069d565b6040516101cb9190612bd8565b60405180910390f35b3480156101e057600080fd5b506101fb60048036038101906101f691906125db565b610722565b005b34801561020957600080fd5b50610224600480360381019061021f9190612409565b61083a565b6040516102319190612c76565b60405180910390f35b34801561024657600080fd5b50610261600480360381019061025c919061246e565b610952565b005b34801561026f57600080fd5b5061028a6004803603810190610285919061246e565b6109b2565b005b6102a660048036038101906102a19190612574565b6109d2565b6040516102b39190612f50565b60405180910390f35b3480156102c857600080fd5b506102e360048036038101906102de919061273a565b610be8565b6040516102f09190612bd8565b60405180910390f35b34801561030557600080fd5b50610320600480360381019061031b9190612409565b610c9a565b60405161032d9190612f50565b60405180910390f35b34801561034257600080fd5b5061034b610d52565b005b34801561035957600080fd5b50610362610dda565b60405161036f9190612bd8565b60405180910390f35b34801561038457600080fd5b5061038d610e04565b60405161039a9190612cce565b60405180910390f35b3480156103af57600080fd5b506103ca60048036038101906103c591906126f9565b610e96565b6040516103d79190612c98565b60405180910390f35b3480156103ec57600080fd5b5061040760048036038101906104029190612538565b610ed1565b005b34801561041557600080fd5b50610430600480360381019061042b91906124bd565b610ee7565b005b34801561043e57600080fd5b506104596004803603810190610454919061273a565b610f49565b6040516104669190612cce565b60405180910390f35b34801561047b57600080fd5b5061049660048036038101906104919190612617565b610f5b565b005b3480156104a457600080fd5b506104bf60048036038101906104ba9190612432565b611069565b6040516104cc9190612c98565b60405180910390f35b3480156104e157600080fd5b506104ea6110fd565b6040516104f79190612cb3565b60405180910390f35b34801561050c57600080fd5b5061052760048036038101906105229190612409565b611123565b005b60007f80ac58cd000000000000000000000000000000000000000000000000000000007bffffffffffffffffffffffffffffffffffffffffffffffffffffffff1916827bffffffffffffffffffffffffffffffffffffffffffffffffffffffff191614806105f457507f5b5e139f000000000000000000000000000000000000000000000000000000007bffffffffffffffffffffffffffffffffffffffffffffffffffffffff1916827bffffffffffffffffffffffffffffffffffffffffffffffffffffffff1916145b8061060457506106038261121b565b5b9050919050565b60606000805461061a90613214565b80601f016020809104026020016040519081016040528092919081815260200182805461064690613214565b80156106935780601f1061066857610100808354040283529160200191610693565b820191906000526020600020905b81548152906001019060200180831161067657829003601f168201915b5050505050905090565b60006106a882611285565b6106e7576040517f08c379a00000000000000000000000000000000000000000000000000000000081526004016106de90612e90565b60405180910390fd5b6004600083815260200190815260200160002060009054906101000a900473ffffffffffffffffffffffffffffffffffffffff169050919050565b600061072d82610be8565b90508073ffffffffffffffffffffffffffffffffffffffff168373ffffffffffffffffffffffffffffffffffffffff16141561079e576040517f08c379a000000000000000000000000000000000000000000000000000000000815260040161079590612ef0565b60405180910390fd5b8073ffffffffffffffffffffffffffffffffffffffff166107bd6112f1565b73ffffffffffffffffffffffffffffffffffffffff1614806107ec57506107eb816107e66112f1565b611069565b5b61082b576040517f08c379a000000000000000000000000000000000000000000000000000000000815260040161082290612dd0565b60405180910390fd5b61083583836112f9565b505050565b6060600b60008373ffffffffffffffffffffffffffffffffffffffff1673ffffffffffffffffffffffffffffffffffffffff168152602001908152602001600020805480602002602001604051908101604052809291908181526020016000905b828210156109475783829060005260206000200180546108ba90613214565b80601f01602080910402602001604051908101604052809291908181526020018280546108e690613214565b80156109335780601f1061090857610100808354040283529160200191610933565b820191906000526020600020905b81548152906001019060200180831161091657829003601f168201915b50505050508152602001906001019061089b565b505050509050919050565b61096361095d6112f1565b826113b2565b6109a2576040517f08c379a000000000000000000000000000000000000000000000000000000000815260040161099990612f10565b60405180910390fd5b6109ad838383611490565b505050565b6109cd83838360405180602001604052806000815250610ee7565b505050565b60006001600a846040516109e69190612b9d565b908152602001604051809103902060009054906101000a900460ff1660ff161415610a46576040517f08c379a0000000000000000000000000000000000000000000000000000000008152600401610a3d90612f30565b60405180910390fd5b600960009054906101000a900473ffffffffffffffffffffffffffffffffffffffff1673ffffffffffffffffffffffffffffffffffffffff166323b872dd3330856040518463ffffffff1660e01b8152600401610aa593929190612bf3565b602060405180830381600087803b158015610abf57600080fd5b505af1158015610ad3573d6000803e3d6000fd5b505050506040513d601f19601f82011682018060405250810190610af7919061267e565b610b0057600080fd5b6000610b0c60086116f7565b9050610b186008611705565b6001600a85604051610b2a9190612b9d565b908152602001604051809103902060006101000a81548160ff021916908360ff160217905550610b5a858261171b565b610b6481856118f5565b600b60008673ffffffffffffffffffffffffffffffffffffffff1673ffffffffffffffffffffffffffffffffffffffff16815260200190815260200160002084908060018154018082558091505060019003906000526020600020016000909190919091509080519060200190610bdc929190612218565b50809150509392505050565b6000806002600084815260200190815260200160002060009054906101000a900473ffffffffffffffffffffffffffffffffffffffff169050600073ffffffffffffffffffffffffffffffffffffffff168173ffffffffffffffffffffffffffffffffffffffff161415610c91576040517f08c379a0000000000000000000000000000000000000000000000000000000008152600401610c8890612e10565b60405180910390fd5b80915050919050565b60008073ffffffffffffffffffffffffffffffffffffffff168273ffffffffffffffffffffffffffffffffffffffff161415610d0b576040517f08c379a0000000000000000000000000000000000000000000000000000000008152600401610d0290612df0565b60405180910390fd5b600360008373ffffffffffffffffffffffffffffffffffffffff1673ffffffffffffffffffffffffffffffffffffffff168152602001908152602001600020549050919050565b610d5a6112f1565b73ffffffffffffffffffffffffffffffffffffffff16610d78610dda565b73ffffffffffffffffffffffffffffffffffffffff1614610dce576040517f08c379a0000000000000000000000000000000000000000000000000000000008152600401610dc590612eb0565b60405180910390fd5b610dd86000611969565b565b6000600760009054906101000a900473ffffffffffffffffffffffffffffffffffffffff16905090565b606060018054610e1390613214565b80601f0160208091040260200160405190810160405280929190818152602001828054610e3f90613214565b8015610e8c5780601f10610e6157610100808354040283529160200191610e8c565b820191906000526020600020905b815481529060010190602001808311610e6f57829003601f168201915b5050505050905090565b60006001600a83604051610eaa9190612b9d565b908152602001604051809103902060009054906101000a900460ff1660ff16149050919050565b610ee3610edc6112f1565b8383611a2f565b5050565b610ef8610ef26112f1565b836113b2565b610f37576040517f08c379a0000000000000000000000000000000000000000000000000000000008152600401610f2e90612f10565b60405180910390fd5b610f4384848484611b9c565b50505050565b6060610f5482611bf8565b9050919050565b610f636112f1565b73ffffffffffffffffffffffffffffffffffffffff16610f81610dda565b73ffffffffffffffffffffffffffffffffffffffff1614610fd7576040517f08c379a0000000000000000000000000000000000000000000000000000000008152600401610fce90612eb0565b60405180910390fd5b610fe18383611d4a565b610feb82826118f5565b600b60008473ffffffffffffffffffffffffffffffffffffffff1673ffffffffffffffffffffffffffffffffffffffff16815260200190815260200160002081908060018154018082558091505060019003906000526020600020016000909190919091509080519060200190611063929190612218565b50505050565b6000600560008473ffffffffffffffffffffffffffffffffffffffff1673ffffffffffffffffffffffffffffffffffffffff16815260200190815260200160002060008373ffffffffffffffffffffffffffffffffffffffff1673ffffffffffffffffffffffffffffffffffffffff16815260200190815260200160002060009054906101000a900460ff16905092915050565b600960009054906101000a900473ffffffffffffffffffffffffffffffffffffffff1681565b61112b6112f1565b73ffffffffffffffffffffffffffffffffffffffff16611149610dda565b73ffffffffffffffffffffffffffffffffffffffff161461119f576040517f08c379a000000000000000000000000000000000000000000000000000000000815260040161119690612eb0565b60405180910390fd5b600073ffffffffffffffffffffffffffffffffffffffff168173ffffffffffffffffffffffffffffffffffffffff16141561120f576040517f08c379a000000000000000000000000000000000000000000000000000000000815260040161120690612d10565b60405180910390fd5b61121881611969565b50565b60007f01ffc9a7000000000000000000000000000000000000000000000000000000007bffffffffffffffffffffffffffffffffffffffffffffffffffffffff1916827bffffffffffffffffffffffffffffffffffffffffffffffffffffffff1916149050919050565b60008073ffffffffffffffffffffffffffffffffffffffff166002600084815260200190815260200160002060009054906101000a900473ffffffffffffffffffffffffffffffffffffffff1673ffffffffffffffffffffffffffffffffffffffff1614159050919050565b600033905090565b816004600083815260200190815260200160002060006101000a81548173ffffffffffffffffffffffffffffffffffffffff021916908373ffffffffffffffffffffffffffffffffffffffff160217905550808273ffffffffffffffffffffffffffffffffffffffff1661136c83610be8565b73ffffffffffffffffffffffffffffffffffffffff167f8c5be1e5ebec7d5bd14f71427d1e84f3dd0314c0f7b2291e5b200ac8c7c3b92560405160405180910390a45050565b60006113bd82611285565b6113fc576040517f08c379a00000000000000000000000000000000000000000000000000000000081526004016113f390612db0565b60405180910390fd5b600061140783610be8565b90508073ffffffffffffffffffffffffffffffffffffffff168473ffffffffffffffffffffffffffffffffffffffff16148061147657508373ffffffffffffffffffffffffffffffffffffffff1661145e8461069d565b73ffffffffffffffffffffffffffffffffffffffff16145b8061148757506114868185611069565b5b91505092915050565b8273ffffffffffffffffffffffffffffffffffffffff166114b082610be8565b73ffffffffffffffffffffffffffffffffffffffff1614611506576040517f08c379a00000000000000000000000000000000000000000000000000000000081526004016114fd90612d30565b60405180910390fd5b600073ffffffffffffffffffffffffffffffffffffffff168273ffffffffffffffffffffffffffffffffffffffff161415611576576040517f08c379a000000000000000000000000000000000000000000000000000000000815260040161156d90612d70565b60405180910390fd5b611581838383611d68565b61158c6000826112f9565b6001600360008573ffffffffffffffffffffffffffffffffffffffff1673ffffffffffffffffffffffffffffffffffffffff16815260200190815260200160002060008282546115dc9190613106565b925050819055506001600360008473ffffffffffffffffffffffffffffffffffffffff1673ffffffffffffffffffffffffffffffffffffffff1681526020019081526020016000206000828254611633919061307f565b92505081905550816002600083815260200190815260200160002060006101000a81548173ffffffffffffffffffffffffffffffffffffffff021916908373ffffffffffffffffffffffffffffffffffffffff160217905550808273ffffffffffffffffffffffffffffffffffffffff168473ffffffffffffffffffffffffffffffffffffffff167fddf252ad1be2c89b69c2b068fc378daa952ba7f163c4a11628f55a4df523b3ef60405160405180910390a46116f2838383611d6d565b505050565b600081600001549050919050565b6001816000016000828254019250508190555050565b600073ffffffffffffffffffffffffffffffffffffffff168273ffffffffffffffffffffffffffffffffffffffff16141561178b576040517f08c379a000000000000000000000000000000000000000000000000000000000815260040161178290612e50565b60405180910390fd5b61179481611285565b156117d4576040517f08c379a00000000000000000000000000000000000000000000000000000000081526004016117cb90612d50565b60405180910390fd5b6117e060008383611d68565b6001600360008473ffffffffffffffffffffffffffffffffffffffff1673ffffffffffffffffffffffffffffffffffffffff1681526020019081526020016000206000828254611830919061307f565b92505081905550816002600083815260200190815260200160002060006101000a81548173ffffffffffffffffffffffffffffffffffffffff021916908373ffffffffffffffffffffffffffffffffffffffff160217905550808273ffffffffffffffffffffffffffffffffffffffff16600073ffffffffffffffffffffffffffffffffffffffff167fddf252ad1be2c89b69c2b068fc378daa952ba7f163c4a11628f55a4df523b3ef60405160405180910390a46118f160008383611d6d565b5050565b6118fe82611285565b61193d576040517f08c379a000000000000000000000000000000000000000000000000000000000815260040161193490612e30565b60405180910390fd5b80600660008481526020019081526020016000209080519060200190611964929190612218565b505050565b6000600760009054906101000a900473ffffffffffffffffffffffffffffffffffffffff16905081600760006101000a81548173ffffffffffffffffffffffffffffffffffffffff021916908373ffffffffffffffffffffffffffffffffffffffff1602179055508173ffffffffffffffffffffffffffffffffffffffff168173ffffffffffffffffffffffffffffffffffffffff167f8be0079c531659141344cd1fd0a4f28419497f9722a3daafe3b4186f6b6457e060405160405180910390a35050565b8173ffffffffffffffffffffffffffffffffffffffff168373ffffffffffffffffffffffffffffffffffffffff161415611a9e576040517f08c379a0000000000000000000000000000000000000000000000000000000008152600401611a9590612d90565b60405180910390fd5b80600560008573ffffffffffffffffffffffffffffffffffffffff1673ffffffffffffffffffffffffffffffffffffffff16815260200190815260200160002060008473ffffffffffffffffffffffffffffffffffffffff1673ffffffffffffffffffffffffffffffffffffffff16815260200190815260200160002060006101000a81548160ff0219169083151502179055508173ffffffffffffffffffffffffffffffffffffffff168373ffffffffffffffffffffffffffffffffffffffff167f17307eab39ab6107e8899845ad3d59bd9653f200f220920489ca2b5937696c3183604051611b8f9190612c98565b60405180910390a3505050565b611ba7848484611490565b611bb384848484611d72565b611bf2576040517f08c379a0000000000000000000000000000000000000000000000000000000008152600401611be990612cf0565b60405180910390fd5b50505050565b6060611c0382611285565b611c42576040517f08c379a0000000000000000000000000000000000000000000000000000000008152600401611c3990612e70565b60405180910390fd5b6000600660008481526020019081526020016000208054611c6290613214565b80601f0160208091040260200160405190810160405280929190818152602001828054611c8e90613214565b8015611cdb5780601f10611cb057610100808354040283529160200191611cdb565b820191906000526020600020905b815481529060010190602001808311611cbe57829003601f168201915b505050505090506000611cec611f09565b9050600081511415611d02578192505050611d45565b600082511115611d37578082604051602001611d1f929190612bb4565b60405160208183030381529060405292505050611d45565b611d4084611f46565b925050505b919050565b611d64828260405180602001604052806000815250611fed565b5050565b505050565b505050565b6000611d938473ffffffffffffffffffffffffffffffffffffffff16612048565b15611efc578373ffffffffffffffffffffffffffffffffffffffff1663150b7a02611dbc6112f1565b8786866040518563ffffffff1660e01b8152600401611dde9493929190612c2a565b602060405180830381600087803b158015611df857600080fd5b505af1925050508015611e2957506040513d601f19601f82011682018060405250810190611e2691906126d0565b60015b611eac573d8060008114611e59576040519150601f19603f3d011682016040523d82523d6000602084013e611e5e565b606091505b50600081511415611ea4576040517f08c379a0000000000000000000000000000000000000000000000000000000008152600401611e9b90612cf0565b60405180910390fd5b805181602001fd5b63150b7a0260e01b7bffffffffffffffffffffffffffffffffffffffffffffffffffffffff1916817bffffffffffffffffffffffffffffffffffffffffffffffffffffffff191614915050611f01565b600190505b949350505050565b60606040518060400160405280600781526020017f697066733a2f2f00000000000000000000000000000000000000000000000000815250905090565b6060611f5182611285565b611f90576040517f08c379a0000000000000000000000000000000000000000000000000000000008152600401611f8790612ed0565b60405180910390fd5b6000611f9a611f09565b90506000815111611fba5760405180602001604052806000815250611fe5565b80611fc48461206b565b604051602001611fd5929190612bb4565b6040516020818303038152906040525b915050919050565b611ff7838361171b565b6120046000848484611d72565b612043576040517f08c379a000000000000000000000000000000000000000000000000000000000815260040161203a90612cf0565b60405180910390fd5b505050565b6000808273ffffffffffffffffffffffffffffffffffffffff163b119050919050565b606060008214156120b3576040518060400160405280600181526020017f30000000000000000000000000000000000000000000000000000000000000008152509050612213565b600082905060005b600082146120e55780806120ce90613277565b915050600a826120de91906130d5565b91506120bb565b60008167ffffffffffffffff811115612127577f4e487b7100000000000000000000000000000000000000000000000000000000600052604160045260246000fd5b6040519080825280601f01601f1916602001820160405280156121595781602001600182028036833780820191505090505b5090505b6000851461220c576001826121729190613106565b9150600a8561218191906132c0565b603061218d919061307f565b60f81b8183815181106121c9577f4e487b7100000000000000000000000000000000000000000000000000000000600052603260045260246000fd5b60200101907effffffffffffffffffffffffffffffffffffffffffffffffffffffffffffff1916908160001a905350600a8561220591906130d5565b945061215d565b8093505050505b919050565b82805461222490613214565b90600052602060002090601f016020900481019282612246576000855561228d565b82601f1061225f57805160ff191683800117855561228d565b8280016001018555821561228d579182015b8281111561228c578251825591602001919060010190612271565b5b50905061229a919061229e565b5090565b5b808211156122b757600081600090555060010161229f565b5090565b60006122ce6122c984612f90565b612f6b565b9050828152602081018484840111156122e657600080fd5b6122f18482856131d2565b509392505050565b600061230c61230784612fc1565b612f6b565b90508281526020810184848401111561232457600080fd5b61232f8482856131d2565b509392505050565b600081359050612346816138dd565b92915050565b60008135905061235b816138f4565b92915050565b600081519050612370816138f4565b92915050565b6000813590506123858161390b565b92915050565b60008151905061239a8161390b565b92915050565b600082601f8301126123b157600080fd5b81356123c18482602086016122bb565b91505092915050565b600082601f8301126123db57600080fd5b81356123eb8482602086016122f9565b91505092915050565b60008135905061240381613922565b92915050565b60006020828403121561241b57600080fd5b600061242984828501612337565b91505092915050565b6000806040838503121561244557600080fd5b600061245385828601612337565b925050602061246485828601612337565b9150509250929050565b60008060006060848603121561248357600080fd5b600061249186828701612337565b93505060206124a286828701612337565b92505060406124b3868287016123f4565b9150509250925092565b600080600080608085870312156124d357600080fd5b60006124e187828801612337565b94505060206124f287828801612337565b9350506040612503878288016123f4565b925050606085013567ffffffffffffffff81111561252057600080fd5b61252c878288016123a0565b91505092959194509250565b6000806040838503121561254b57600080fd5b600061255985828601612337565b925050602061256a8582860161234c565b9150509250929050565b60008060006060848603121561258957600080fd5b600061259786828701612337565b935050602084013567ffffffffffffffff8111156125b457600080fd5b6125c0868287016123ca565b92505060406125d1868287016123f4565b9150509250925092565b600080604083850312156125ee57600080fd5b60006125fc85828601612337565b925050602061260d858286016123f4565b9150509250929050565b60008060006060848603121561262c57600080fd5b600061263a86828701612337565b935050602061264b868287016123f4565b925050604084013567ffffffffffffffff81111561266857600080fd5b612674868287016123ca565b9150509250925092565b60006020828403121561269057600080fd5b600061269e84828501612361565b91505092915050565b6000602082840312156126b957600080fd5b60006126c784828501612376565b91505092915050565b6000602082840312156126e257600080fd5b60006126f08482850161238b565b91505092915050565b60006020828403121561270b57600080fd5b600082013567ffffffffffffffff81111561272557600080fd5b612731848285016123ca565b91505092915050565b60006020828403121561274c57600080fd5b600061275a848285016123f4565b91505092915050565b600061276f8383612852565b905092915050565b6127808161313a565b82525050565b600061279182613002565b61279b8185613030565b9350836020820285016127ad85612ff2565b8060005b858110156127e957848403895281516127ca8582612763565b94506127d583613023565b925060208a019950506001810190506127b1565b50829750879550505050505092915050565b6128048161314c565b82525050565b60006128158261300d565b61281f8185613041565b935061282f8185602086016131e1565b612838816133ad565b840191505092915050565b61284c816131ae565b82525050565b600061285d82613018565b6128678185613052565b93506128778185602086016131e1565b612880816133ad565b840191505092915050565b600061289682613018565b6128a08185613063565b93506128b08185602086016131e1565b6128b9816133ad565b840191505092915050565b60006128cf82613018565b6128d98185613074565b93506128e98185602086016131e1565b80840191505092915050565b6000612902603283613063565b915061290d826133be565b604082019050919050565b6000612925602683613063565b91506129308261340d565b604082019050919050565b6000612948602583613063565b91506129538261345c565b604082019050919050565b600061296b601c83613063565b9150612976826134ab565b602082019050919050565b600061298e602483613063565b9150612999826134d4565b604082019050919050565b60006129b1601983613063565b91506129bc82613523565b602082019050919050565b60006129d4602c83613063565b91506129df8261354c565b604082019050919050565b60006129f7603883613063565b9150612a028261359b565b604082019050919050565b6000612a1a602a83613063565b9150612a25826135ea565b604082019050919050565b6000612a3d602983613063565b9150612a4882613639565b604082019050919050565b6000612a60602e83613063565b9150612a6b82613688565b604082019050919050565b6000612a83602083613063565b9150612a8e826136d7565b602082019050919050565b6000612aa6603183613063565b9150612ab182613700565b604082019050919050565b6000612ac9602c83613063565b9150612ad48261374f565b604082019050919050565b6000612aec602083613063565b9150612af78261379e565b602082019050919050565b6000612b0f602f83613063565b9150612b1a826137c7565b604082019050919050565b6000612b32602183613063565b9150612b3d82613816565b604082019050919050565b6000612b55603183613063565b9150612b6082613865565b604082019050919050565b6000612b78601383613063565b9150612b83826138b4565b602082019050919050565b612b97816131a4565b82525050565b6000612ba982846128c4565b915081905092915050565b6000612bc082856128c4565b9150612bcc82846128c4565b91508190509392505050565b6000602082019050612bed6000830184612777565b92915050565b6000606082019050612c086000830186612777565b612c156020830185612777565b612c226040830184612b8e565b949350505050565b6000608082019050612c3f6000830187612777565b612c4c6020830186612777565b612c596040830185612b8e565b8181036060830152612c6b818461280a565b905095945050505050565b60006020820190508181036000830152612c908184612786565b905092915050565b6000602082019050612cad60008301846127fb565b92915050565b6000602082019050612cc86000830184612843565b92915050565b60006020820190508181036000830152612ce8818461288b565b905092915050565b60006020820190508181036000830152612d09816128f5565b9050919050565b60006020820190508181036000830152612d2981612918565b9050919050565b60006020820190508181036000830152612d498161293b565b9050919050565b60006020820190508181036000830152612d698161295e565b9050919050565b60006020820190508181036000830152612d8981612981565b9050919050565b60006020820190508181036000830152612da9816129a4565b9050919050565b60006020820190508181036000830152612dc9816129c7565b9050919050565b60006020820190508181036000830152612de9816129ea565b9050919050565b60006020820190508181036000830152612e0981612a0d565b9050919050565b60006020820190508181036000830152612e2981612a30565b9050919050565b60006020820190508181036000830152612e4981612a53565b9050919050565b60006020820190508181036000830152612e6981612a76565b9050919050565b60006020820190508181036000830152612e8981612a99565b9050919050565b60006020820190508181036000830152612ea981612abc565b9050919050565b60006020820190508181036000830152612ec981612adf565b9050919050565b60006020820190508181036000830152612ee981612b02565b9050919050565b60006020820190508181036000830152612f0981612b25565b9050919050565b60006020820190508181036000830152612f2981612b48565b9050919050565b60006020820190508181036000830152612f4981612b6b565b9050919050565b6000602082019050612f656000830184612b8e565b92915050565b6000612f75612f86565b9050612f818282613246565b919050565b6000604051905090565b600067ffffffffffffffff821115612fab57612faa61337e565b5b612fb4826133ad565b9050602081019050919050565b600067ffffffffffffffff821115612fdc57612fdb61337e565b5b612fe5826133ad565b9050602081019050919050565b6000819050602082019050919050565b600081519050919050565b600081519050919050565b600081519050919050565b6000602082019050919050565b600082825260208201905092915050565b600082825260208201905092915050565b600082825260208201905092915050565b600082825260208201905092915050565b600081905092915050565b600061308a826131a4565b9150613095836131a4565b9250827fffffffffffffffffffffffffffffffffffffffffffffffffffffffffffffffff038211156130ca576130c96132f1565b5b828201905092915050565b60006130e0826131a4565b91506130eb836131a4565b9250826130fb576130fa613320565b5b828204905092915050565b6000613111826131a4565b915061311c836131a4565b92508282101561312f5761312e6132f1565b5b828203905092915050565b600061314582613184565b9050919050565b60008115159050919050565b60007fffffffff0000000000000000000000000000000000000000000000000000000082169050919050565b600073ffffffffffffffffffffffffffffffffffffffff82169050919050565b6000819050919050565b60006131b9826131c0565b9050919050565b60006131cb82613184565b9050919050565b82818337600083830152505050565b60005b838110156131ff5780820151818401526020810190506131e4565b8381111561320e576000848401525b50505050565b6000600282049050600182168061322c57607f821691505b602082108114156132405761323f61334f565b5b50919050565b61324f826133ad565b810181811067ffffffffffffffff8211171561326e5761326d61337e565b5b80604052505050565b6000613282826131a4565b91507fffffffffffffffffffffffffffffffffffffffffffffffffffffffffffffffff8214156132b5576132b46132f1565b5b600182019050919050565b60006132cb826131a4565b91506132d6836131a4565b9250826132e6576132e5613320565b5b828206905092915050565b7f4e487b7100000000000000000000000000000000000000000000000000000000600052601160045260246000fd5b7f4e487b7100000000000000000000000000000000000000000000000000000000600052601260045260246000fd5b7f4e487b7100000000000000000000000000000000000000000000000000000000600052602260045260246000fd5b7f4e487b7100000000000000000000000000000000000000000000000000000000600052604160045260246000fd5b6000601f19601f8301169050919050565b7f4552433732313a207472616e7366657220746f206e6f6e20455243373231526560008201527f63656976657220696d706c656d656e7465720000000000000000000000000000602082015250565b7f4f776e61626c653a206e6577206f776e657220697320746865207a65726f206160008201527f6464726573730000000000000000000000000000000000000000000000000000602082015250565b7f4552433732313a207472616e736665722066726f6d20696e636f72726563742060008201527f6f776e6572000000000000000000000000000000000000000000000000000000602082015250565b7f4552433732313a20746f6b656e20616c7265616479206d696e74656400000000600082015250565b7f4552433732313a207472616e7366657220746f20746865207a65726f2061646460008201527f7265737300000000000000000000000000000000000000000000000000000000602082015250565b7f4552433732313a20617070726f766520746f2063616c6c657200000000000000600082015250565b7f4552433732313a206f70657261746f7220717565727920666f72206e6f6e657860008201527f697374656e7420746f6b656e0000000000000000000000000000000000000000602082015250565b7f4552433732313a20617070726f76652063616c6c6572206973206e6f74206f7760008201527f6e6572206e6f7220617070726f76656420666f7220616c6c0000000000000000602082015250565b7f4552433732313a2062616c616e636520717565727920666f7220746865207a6560008201527f726f206164647265737300000000000000000000000000000000000000000000602082015250565b7f4552433732313a206f776e657220717565727920666f72206e6f6e657869737460008201527f656e7420746f6b656e0000000000000000000000000000000000000000000000602082015250565b7f45524337323155524953746f726167653a2055524920736574206f66206e6f6e60008201527f6578697374656e7420746f6b656e000000000000000000000000000000000000602082015250565b7f4552433732313a206d696e7420746f20746865207a65726f2061646472657373600082015250565b7f45524337323155524953746f726167653a2055524920717565727920666f722060008201527f6e6f6e6578697374656e7420746f6b656e000000000000000000000000000000602082015250565b7f4552433732313a20617070726f76656420717565727920666f72206e6f6e657860008201527f697374656e7420746f6b656e0000000000000000000000000000000000000000602082015250565b7f4f776e61626c653a2063616c6c6572206973206e6f7420746865206f776e6572600082015250565b7f4552433732314d657461646174613a2055524920717565727920666f72206e6f60008201527f6e6578697374656e7420746f6b656e0000000000000000000000000000000000602082015250565b7f4552433732313a20617070726f76616c20746f2063757272656e74206f776e6560008201527f7200000000000000000000000000000000000000000000000000000000000000602082015250565b7f4552433732313a207472616e736665722063616c6c6572206973206e6f74206f60008201527f776e6572206e6f7220617070726f766564000000000000000000000000000000602082015250565b7f4e465420616c7265616479206d696e7465642100000000000000000000000000600082015250565b6138e68161313a565b81146138f157600080fd5b50565b6138fd8161314c565b811461390857600080fd5b50565b61391481613158565b811461391f57600080fd5b50565b61392b816131a4565b811461393657600080fd5b5056fea26469706673582212202ddbbd46d46b0f698aae833f45517f484078328be0ff07d8fd80f238801ab65464736f6c63430008040033",
  "linkReferences": {},
  "deployedLinkReferences": {}
}